:1000000000000110E500000075010000590100002A
:100010007501000075010000750100007501000008
:10002000750100007501000075010000B537000082
:100030007501000075010000B9370000BD370000F0
:10004000755B0000755B0000755B0000755B000070
:10005000755B0000755B0000755B0000755B000060
:10006000755B0000755B0000755B0000755B000050
:10007000755B0000755B0000755B0000755B000040
:10008000755B0000755B0000755B0000755B000030
:10009000755B0000755B0000755B0000755B000020
:1000A000755B0000755B0000755B0000755B000010
:1000B000755B0000755B0000755B0000755B000000
:1000C000755B0000755B0000755B0000755B0000F0
:1000D000755B0000755B0000755B0000755B0000E0
:1000E000755B000008B500F057F900F073F900F0F7
:1000F0007BF900F09BF800F095F802F02BFF02F07E
:100100005BFE00F0BFF840B141F28734002502F0F9
:100110004DFF8D4208BF8442F9D200F082F918B930
:100120000849094807F0C0FC0649084807F0BCFC2C
:1001300006F0ECF8064B07481B68D96806F038FC57
:10014000FEE700BFD0C70000DCC7000009C8000000
:10015000B401001021C800001EF0040F0CBFEFF323
:100160000880EFF309808169004A1047D10100003F
:100170007047FFFF38B50F4C0F4B10481D782368B0
:10018000D96806F015FC23680D49D8682A4606F0A0
:1001900097FB0F2D236807D80A4A0B4952F82520F0
:1001A000D86806F08DFBFEE7D968084806F000FC29
:1001B000F9E700BFB401001004ED00E05CC80000E6
:1001C00076C8000068C90000B0C80000CEC80000B2
:1001D00010B5044600F04AF8236883606368C36082
:1001E000A3680361E3684361236943626369013B78
:1001F000C361A3698361E3690362BFF34F8F05495C
:10020000054BCA6802F4E0621343CB60BFF34F8F23
:1002100000BFFDE700ED00E00400FA05004870476C
:1002200000D8B8050048704700D8B8050E4B072223
:10023000C3F88420AA210122C3F88020C3F88C10BF
:100240005521C3F88C10C3F8A821D3F88820520593
:10025000FBD51A6822F4704242F480421A6040F2E0
:100260000112C3F80421704700C00F400248034A3E
:10027000034BC0E90023704700000020EFBEADDE55
:100280001041522138B5224C224B22689A423DD16E
:100290006268214B9A4239D1204D21482B68D96898
:1002A00006F086FB2B68A2691E49D86806F008FB99
:1002B0002B68E2691C49D86806F002FB2B68226AA9
:1002C0001A49D86806F0FCFA2B68A2681849D86861
:1002D00006F0F6FA2B68E2681649D86806F0F0FADC
:1002E0002B6822691449D86806F0EAFA2B6862691B
:1002F0001249D86806F0E4FA2B681148D96806F06C
:1003000057FB01200023C4E9003338BD0020F9E782
:1003100000000020EFBEADDE10415221B4010010FC
:10032000A8C90000FBC900000ACA000019CA0000E1
:1003300028CA000037CA000046CA000055CA00009B
:1003400064CA00000E4A136810B50E4C1918A14279
:10035000116002D30C4CA1420BD313600B4A0C4921
:1003600013681844884208D30A49884205D21060AD
:1003700001E0002BF2D0184610BD0023FBE700BFC0
:100380000000001028000020008000200400001061
:100390000425001000000110094A0A4B0A498B424B
:1003A00005D30A4B0A4A0021934205D3704712F83D
:1003B000010B03F8010BF2E703F8011BF4E700BFA0
:1003C000CCE3000000000010880300108803001038
:1003D00004250010034AD2F8883043F47003C2F8B1
:1003E0008830704700ED00E0044800232021C21847
:1003F0000133292B82F80013F9D1704700E100E0A6
:1004000008B52A2219233821022005F0A5FB0D2268
:100410003821022005F05CFBA0F12A035842584124
:1004200008BDFFF7EDBF42884378007843EA022316
:1004300040EA032070470B0A017043700B0C090E51
:100440008370C170704710B5024410F8013B11F879
:10045000014B9042A3EB040301D0002BF5D01846CA
:1004600010BDC3690239023B8B4283BF4389006BD5
:1004700001FB030000207047024600F10B01002041
:10048000C30143EA500312F8010B50FA83F38A4286
:10049000D8B2F5D1704702684AB1134613F8011B70
:1004A0001F290BD93A29F9D1911C8B4202D04FF068
:1004B000FF3070471278302AF9D10360002070476E
:1004C00001380A4411F8013B00F8013F9142F9D18B
:1004D0007047CA7E8B7E032843EA022301BF487D12
:1004E0000A7D42EA002243EA024318467047C2F3FB
:1004F00007238A76CB760378032B01BF120C0A758B
:10050000120A4A75704770B500F13806426B04460E
:1005100001233146407801F022FD054688B9616B20
:10052000A36A226AE070CB1A934208D2A378022B06
:1005300005D10A4401233146607801F010FD2846B8
:1005400070BD0125FBE738B5436B8B4204460D4671
:1005500019D0C3788BB901232A4604F13801607899
:1005600001F0E9FC002818BF4FF0FF350346656332
:100570000CBF03460123184638BDFFF7C4FF0346EE
:100580000028F8D1E7E70023F5E7FFFF38B500239F
:10059000C3704FF0FF3343630546FFF7D4FF0446B3
:1005A00018BB95F8372295F8363243EA02234AF60B
:1005B000552293421BD195F83830EB2B03D01833DA
:1005C000DBB2012B15D803220B4905F16E00FFF7B2
:1005D0003AFF40B10522094905F18A00FFF733FFD0
:1005E000002818BF0224204638BD0424FBE703245A
:1005F000F9E70224F7E700BFC5CB0000C9CB000034
:100600002DE9F043002385B00B600F461546FFF738
:1006100042FF061EC0F23981A44B53F82640002C3D
:1006200000F03581206901F0EBFB002800F03181FA
:100630003C60237805F0FE056BB1607801F076FC34
:10064000C10708D41DB110F0040500D00A252846C2
:1006500005B0BDE8F0830023F0B22370607001F0B4
:1006600057FCC20700F117810DB14307EED40021FA
:100670002046FFF78BFF022840F0EE806F4604F51E
:10068000FF7104F23E263D4611F8040C10B10846F5
:10069000FFF7C9FE10318E4245F8040BF4D1002556
:1006A00057F8046B002E00F0CE8031462046FFF74D
:1006B0006DFF012800F2C88094F8442094F843307C
:1006C00043EA0223B3F5007F40F0CA8094F84F302C
:1006D00094F84E5055EA032504D104F15C00FFF76D
:1006E000A2FE054694F8481025624B1E012BA1700E
:1006F00000F2B68094F845901FFA89F36381002BCD
:1007000000F0AE8009F1FF3313EA090F40F0A88032
:1007100094F84A3094F8497047EA03273FB21FFA29
:1007200087F818F00F0FA4F8088040F0998094F82B
:100730004C3094F84B0050EA032003D104F15800E8
:10074000FFF771FE94F8472094F8463053EA0223ED
:1007500000F0868005FB01FC03EB18126244904216
:100760007ED3801A4845B0FBF9F179D350488142D5
:1007700076D84FF6F570814240F28F804FF0030932
:10078000023133443244B9F1030FE1616662A3627E
:10079000226369D194F8632094F8623043EA02231B
:1007A0001F433FB2002F5BD104F16400FFF73BFE13
:1007B000E062890001F2FF11B5EB512F50D34FF0E9
:1007C000FF33C4E90533B9F1030F4FF08003237100
:1007D0002FD194F8692094F8683043EA0223012B62
:1007E00027D1711C2046FFF7AEFE10BB94F83722CC
:1007F00094F83632207143EA02234AF65522934296
:1008000017D104F13800FFF70EFE2A4B984210D1A1
:1008100004F50770FFF707FE274B984209D104F54E
:100820000870FFF700FEA06104F50970FFF7FBFDFB
:100830006061224A84F80090138801339BB21380D0
:10084000E380002503E703200135042D7FF428AF62
:10085000042805D10125FAE60428FBD0012801D996
:100860000D25F4E6002627E7B8F1000FF8D0634421
:10087000B9F1020FE3624FEA41031BBF5B1801F0BD
:100880000101194601EB530194E70B25DFE60C2526
:10089000DDE60F25DBE60325D9E640F6F579494587
:1008A0008CBF4FF002094FF0010969E7880300107F
:1008B000F5FFFF0F52526141727241618C030010CB
:1008C00001292DE9F04705460C46174672D9C36940
:1008D0008B426FD90378022B3FD0032B50D0012BD2
:1008E00068D101EB5108816A01EB5821FFF72BFE1B
:1008F000064638BB05F1380908F1010AC8F30808B3
:1009000014F001041FBF19F8083003F00F023B0177
:1009100003F0F00314BF1343FBB209F80830A96ACF
:100920000123EB7001EB5A212846FFF70CFE064627
:1009300040B9CAF3080A44B1C7F3071709F80A70A7
:100940000123EB703046BDE8F08719F80A30C7F391
:10095000032723F00F031F43F0E7816A01EB142103
:10096000FFF7F1FD06460028ECD1640005F13803DD
:1009700004F4FF741A191F55C7F307275770DFE7F0
:10098000816A01EBD411FFF7DEFD06460028D9D1BC
:10099000A40005F1380304F4FE741C442046FFF75C
:1009A00042FD27F0704700F0704139432046FFF7C1
:1009B00042FDC5E70226C5E70129F8B505460C4604
:1009C00052D9C36999424FD20378022B29D0032B05
:1009D00038D0012B48D101EB5106816A01EB562139
:1009E000FFF7B1FD10B14FF0FF30F8BD771CA96AD9
:1009F000C6F308062E4401EB5721284696F83860C6
:100A0000FFF7A1FD0028EED1C7F308073D44E30737
:100A100095F8380046EA00204CBF0009C0F30B00EF
:100A2000E3E7816A01EB1421FFF78DFD0028DAD19D
:100A30006400383504F4FF742B19285D5B7840EAB4
:100A40000320D2E7816A01EBD411FFF77CFD002877
:100A5000C9D1A40005F1380004F4FE742044FFF766
:100A6000E2FC20F07040C0E70120BEE7B1F5001FB6
:100A7000F8B506460D4601D30220F8BDCA06FBD1E3
:100A8000826804683161CAB92378022B01D9E36A0C
:100A90009BB92389B3EB551FEED9E36AB361B36900
:100AA0007261002BE8D003EB55233834C5F30805F9
:100AB0002C44B361F4610020DFE71A4667897F02A6
:100AC000BD42114604D22046FFF7CBFCB061E6E7F9
:100AD0003068FFF771FF431C024606D00128CBD9CE
:100AE000E3698342C8D9ED1BEAE70120C5E72DE998
:100AF000F041804605680F4649B96E69C6B1EB6999
:100B0000B34298BF0126AB69A3B9002406E028468A
:100B1000FFF752FF0128044603D801242046BDE810
:100B2000F081421C51D0EB698342F7D83E46EAE798
:100B30000126E8E7BE4215D1EB69D8F80000741C25
:100B4000A34298BF02242146FFF736FF0128E4D0D4
:100B5000431C3AD0D8B16B69012B03D9EA6993429F
:100B600038BF1E463446EB690134A34202D8012E39
:100B7000CBD902242146D8F80000FFF71DFF40B171
:100B80000128CAD0013020D0B442ECD1BDE7002CFE
:100B9000E8D04FF0FF3221462846FFF791FE90B98A
:100BA00057B9D5E90632023A93426C6110D92B79D4
:100BB00043F001032B71B1E7224639462846FFF77F
:100BC0007FFE0028EDD00128A7D14FF0FF34A5E724
:100BD000013BAB61EBE7F8B50D46012D0746114629
:100BE00004682BD9E369AB4228D92AB14FF0FF3210
:100BF0002046FFF765FE30B929463868FFF7DCFE6E
:100C0000064608B90020F8BD012817D0431C17D0AC
:100C1000002229462046FFF753FE0028F3D1D4E9ED
:100C20000632911E8B4205D20133A361237943F032
:100C300001032371B2423546DED8E3E70220E2E742
:100C40000120E0E740B1A1F10B03012B04D90F29EA
:100C500002D0006901F0DDB8704738B50D46044692
:100C6000F0B10368DBB11A78B2B18188DA889142B9
:100C700012D1186901F0C4F8034698B12368587876
:100C800001F054F910F0010002D124682C6038BD45
:100C900000212068FFF7D6FF09200024F6E71C4654
:100CA0000920F3E70F201C46F0E72DE9F047002666
:100CB000D0F800A08E75836980460C46002B00F0AA
:100CC0009080C36A01336BD1D8F81C1000224D1EEE
:100CD00010462E2615F8013F202B00F101000CD004
:100CE000052B08BFE523092804D10B2A9EBFA718AE
:100CF00001327E72A71801327B720B28EAD1A31849
:100D000000205872A37D002B5AD1002A4FD004F145
:100D1000090010F8012B002A4CD092B2A2F1410533
:100D2000192D07D8082B0E7B8CBF102508252E42C5
:100D300018BF203202730133EBE7B9F1000F05D180
:100D400000F520539BB2B3F5006F12D340F2B511FA
:100D500040EA094001F062F8FF28C7F1800518D980
:100D6000012D20D9E319020A9A75D87502231F4470
:100D7000002002368146DAF80C30985B0028DCD17E
:100D80003D46B9F1000F18BF002525440023AB757F
:100D90009AE750B1002DF4D0E31998750123E6E7E6
:100DA000B1463746E7E70025EBE70546E9E73F238D
:100DB000A3750123234400229A750B7B03B9637248
:100DC000CB7A237201F11C00FFF72DFB2060CA7D56
:100DD0008B7D43EA0223E3804A7E0B7E43EA0223B3
:100DE000A380BDE8F087F8B5C37804460D46C3B9C3
:100DF00029462046FFF735FB04F1380607466063B5
:100E000004F50E723346002103F8011B9342FBD117
:100E1000002563899D420AD36089401B18BF0120C9
:100E2000F8BDFFF770FB0028E2D00120F8E70123AE
:100E30007A193146607801F092F80028ECD101353A
:100E4000E7E72DE9F843076905682037B7F5001F84
:100E500024BF0023836183690446894673B1C7F3C5
:100E60000808B8F1000F39D141690133836139B9FC
:100E70002B89B3EB571F31D80023A36104200BE06B
:100E80006B89013B13EA572328D12846FFF794FDCD
:100E90000128064602D80220BDE8F883421C01D191
:100EA0000120F9E7EB69834212D8B9F1000FE3D0D2
:100EB00061692046FFF71BFE0646A8B10128EAD06B
:100EC000431CEDD001462846FFF78DFF0028E7D1EF
:100ED000666131462846FFF7C4FAA06138354544BB
:100EE0002761E5610020D7E70720D5E72DE9F04F1E
:100EF000002185B00446D0F80080FFF7B7FD814699
:100F0000002840F08C804FF0FF334FF0FF0AE3627F
:100F100057460093A1694046FFF715FB814600281C
:100F20007DD1E5692E78002E7DD0EA7AE52E02F09B
:100F30003F03A37103D0100704D50F2B04D0009BEF
:100F4000E36252E00F2B57D194F82B30590642D46C
:100F5000720648D5236995F80DA0E36206F0BF0636
:100F60006B7B534541D1EA7EAB7E53EA02233CD1F1
:100F70002F78D8F80CB007F03F077B1E0D275F4392
:100F80002A4B012113F8012BA81815F8029040787C
:100F900049EA002959B37F2F039326D8484600F029
:100FA00071FF7A1C02903BF81700019200F06AFF73
:100FB0000299814219D1019A039B494617461C4A5E
:100FC0009A42DFD12B785B0603D511B13BF817307D
:100FD0005BB9013EF7B200212046FFF732FF8146A0
:100FE000002897D01BE0B742BAD0FF27F3E74FF6AF
:100FF000FF729145E3D0F8E727B92846FFF73CFA9E
:1010000050450CD094F82B9019F0010997D10B2280
:1010100004F120012846FFF716FA00288FD1484630
:1010200005B0BDE8F08F4FF00409F8E7B8CB000039
:10103000C5CB00002DE9F84FFF260768054634466A
:101040004FF004094FF6FF78A96919B9B9F1000FFB
:101050006FD05FE03846FFF776FA8146002859D115
:10106000E8690378002B6DD0C27AE52B02F03F02CD
:10107000AA7154D02E2B52D022F0200108294ED034
:101080000F2A51D15A0648D503F0BF042B69467B7D
:10109000EB62437BB34242D1C27E837E43EA0223AA
:1010A0001BB2002B3BD10278F968DFF8A0E022F0F8
:1010B0004002013A4FF00D0C0CFB02FC4FF001090D
:1010C0001EF801AB00EB0A0292F801B010F80A20FA
:1010D00042EA0B22B9F1000F23D0BCF17F0F1ED8DA
:1010E00021F81C2091460CF1010C01330D2BE7D1A6
:1010F00003785B0605D5BCF17F0F10D8002321F8DB
:101100001C30013CE4B200212846FFF79AFE8146DC
:10111000002899D00023AB610DE0A342B9D0FF2491
:10112000F1E74245E1D0FAE744B9FFF7A5F9B0424B
:1011300004D14FF000094846BDE8F88F4FF0FF3367
:10114000EB62F8E74FF00409E4E700BFB8CB00001A
:101150002DE9F04F85B00368019306468A4611F8E1
:10116000013B2F2BFAD05C2BF8D00021B1609AF80C
:1011700000301F2B00F2CD808023304686F82B30C4
:1011800005B0BDE8F04FFFF771BC7F2807D8924A41
:1011900012F8013B1BB19842FAD106204EE0802D97
:1011A000FBD02BF815000135B7E033F8022D202ACB
:1011B00002D02E2A40F0D480013DCEE00246D7E096
:1011C000C84505D2AB4249D1B9F10B0F3ED102E07F
:1011D000B9F10B0F35D144F003044FF00B0996F829
:1011E0002030E52B04BF052386F82030B9F1080F25
:1011F00004BFBF00FFB207F00C030C2B03D007F0B5
:101200000303032B01D144F00204A50707D4F80718
:1012100048BF44F01004790748BF44F0080486F83A
:101220002B403046FFF762FE96F82B3000285FD047
:10123000042803D113F0040F08BF052005B0BDE852
:10124000F08FAB4202D044F00304C8D8BF00FFB215
:101250002B464FF00B094FF00808B9E07F2812D950
:1012600044F0020240F2B5110393029200F0D6FD61
:1012700010F0800FDDE902230FD000F07F00574906
:10128000085C144628B1564911F8012BF2B182428C
:10129000FAD144F003045F2011E0FF28F1D909F1ED
:1012A000FF31884503D344F00304C84690E006EBC1
:1012B0000801040A81F8204008F10108144606EBF1
:1012C000080208F1010882F8200081E0A0F1410243
:1012D00092B2192A02D847F00207F0E7A0F16102A2
:1012E00092B2192A9EBF203847F0010780B2E6E784
:1012F0005A07A3D4B379DB066CD5019B03F13801FF
:101300003369C3F308031944019B1878FFF7E1F828
:10131000B0603368D3F80CB000251AF8010B68B13F
:1013200040F2B51100F09AFD00283FF436AF1F28B7
:1013300004D92F2802D05C287FF427AF52461378B7
:101340002F2B924602F10102F9D05C2BF7D0202816
:1013500034BF042400240BEB4503002D7FF425AF9C
:1013600000220BEB45032BF81520002D3FF415AFA1
:101370003BF81210202902F101003FF41FAF0AB917
:101380002E2901D144F0030433F8021D2E2901D087
:10139000013DF9D106F1200306F12B01202003F8CD
:1013A000010B9942FBD14FF000084FF00809474666
:1013B0003BF81200531C00283FF411AF202805D041
:1013C0002E287FF4FDAEAB423FF4FEAE44F00304A2
:1013D0001A46EDE7052031E7CFCB000038CB0000FF
:1013E000D8CB000070B5C3780446002B45D12378D4
:1013F000032B39D12379012B36D104F1380604F5BA
:101400000E723346002503F8015B9342FBD155234E
:1014100084F83632AA2384F83732522341227221CB
:1014200084F8383084F83930612384F83A3084F80D
:101430003B2084F81E2284F81F3284F81C1284F8A2
:101440001D1204F50870A169FEF7F5FF616904F546
:101450000970FEF7F0FF626A60780132626301236F
:10146000314600F07CFD257100221146607800F0C5
:101470008AFD003018BF012003E0FFF744F8002880
:10148000B5D070BD2DE9F04F90F82B4014F0A004BA
:1014900089B0054640F08F800668F26832F8143053
:1014A000002B66D105F120070C22394605A8FFF76D
:1014B00007F89DF81F30DB0740F186804023DFF8F6
:1014C000448285F82B304FF0010A0B2205A93846DB
:1014D000D6F80C90FEF7F4FFBAF1050F5AD9A9F12E
:1014E0000201534631F8022F002A44D10DF11300B6
:1014F000072203F00F0C0CF13001392988BF0CF1E1
:1015000037010F2B00F8011902F1FF324FEA1311D6
:1015100042D808AB13447E2103F8141C05F11F01C7
:1015200008460023934206D010F801CFBCF1200FEB
:1015300003F1010E32D1072A9CBF08A8801803F1DD
:10154000010396BF10F8140C20200132072BC85459
:10155000F1D92846FFF7CAFC814678BB0AF1010A97
:10156000BAF1640FB1D14FF00709484609B0BDE8A0
:10157000F08F013492E7102002F0010C0CEB4303D2
:1015800013F4803F18BF83EA080301384FEA520280
:10159000F2D1A7E75346A9E70B46AAE77346C1E78E
:1015A000804601212846FFF74CFC814610B3B9F173
:1015B000040FD8D0D9E74FF00609D6E70428D4D1D4
:1015C0009DF81F3085F82B309DF81F30D5F800A00E
:1015D0009B0748BF0C344FF00001284649BF0D233C
:1015E0000124B4FBF3F40134FFF740FA81460028EC
:1015F000DDD18046A9695046FEF7A5FF8146002847
:10160000D5D1EB691B78E52B01D0002BC8D108F1AF
:1016100001084445C5D1013C55D029692846A1EBB4
:101620004411FFF723FA814600289ED13846FEF781
:1016300023FF4FF6FF780190A9693046FEF783FF3C
:101640008146002891D1EB69019AD6F80CE05A73D3
:10165000E1B24FF00F024FF00D0CDA72DFF8A8A0E4
:1016600018734A1E0CFB02F29876D87684464045E1
:101670001AF8019B18BF3EF8120003F8090003EBAB
:10168000090B0CF1010C18BF01324FEA1029002898
:1016900008BF4046BCF10D0F8BF80190E7D14045E3
:1016A00002D03EF812200AB941F04001197001231E
:1016B000F37000212846FFF7C4FB814600287FF421
:1016C00054AF013CB8D1A9693046FEF73CFF8146D2
:1016D00000287FF44AAFEB69014603F1200203F8CA
:1016E000011B9342FBD10B223946E869FEF7E8FE65
:1016F00095F82B30EA6903F0180313730123F37094
:1017000033E700BF21100100B8CB0000F0B585B071
:10171000CDE9001003A814460391FEF7BCFE051E98
:1017200028DB154F57F825604EB1306900F063FB98
:1017300018B90224204605B0F0BD0023337001998A
:1017400079B9019B47F82530002CF3D001A900227C
:101750006846FEF755FF044601460198FFF772FA06
:10176000E8E7002301F8103BE8B200F03AFB00285C
:10177000E7D1DEE70B24DDE7880300102DE9F04117
:10178000D0B0174601910446002800F0DB8002F03B
:101790003F052A4602A901A8FEF732FF06460028A7
:1017A0004BD1029B019903930FAADA6003A8FFF7BC
:1017B000CFFC20B99DF93730002BB8BF062017F0B9
:1017C0001C0F00F09F80002842D0042835D103A8C8
:1017D000FFF758FE88BB45F00805029BDDF828801E
:1017E00018784146FEF775FE074600F0DEFB01461D
:1017F00008F10E00FEF71FFE0A9B02982022DA7203
:101800000A990022FEF773FE0A9B00221A775A7784
:101810009A77DA77029B0121D97017B3394603A86A
:10182000D3F83480FFF7D7F938B941460298FEF76C
:101830008AFE029B013F5F6198B100232360064648
:1018400031460298FFF7FEF9304650B0BDE8F0810E
:101850009DF8123013F0110F5ED178076CD4390760
:10186000BBD4DDF808800A9FD8F834302362676261
:1018700098F800002907394648BF45F04005FEF7B3
:1018800028FEA06007F11C00FEF7CDFDB8F8063079
:10189000A38004F128070023E060C4F800802574C9
:1018A0006374E361636104F50A713A4602F8013B2F
:1018B0009142FBD1AA06C3D5E568002DC0D0B8F887
:1018C0000A80A16865614FEA4828A84526D3002010
:1018D000A1610028B1D1C5F30803002BB0D0DDF819
:1018E00008804046FEF7BDFD50B300EB5522E26193
:1018F0000123394698F8010000F01DFB00289FD015
:1019000001209AE7002898D19DF81230DA0615D404
:10191000BF07A6D5D807A4D507208EE72068FFF714
:101920004BF801280146A5EB080503D9431CCCD18F
:101930000120CDE70220CBE708207EE704207CE7EA
:1019400002207AE709267FE72DE9F04F9B4685B014
:1019500000238946CBF8003003A904461646FFF75A
:101960007CF9054608B9657C25B129460398FFF73F
:1019700069F908E0257C15F0010508D107210398D5
:10198000FFF760F90725284605B0BDE8F08FE3684A
:101990006769DF1BB74204F1280328BF374600936D
:1019A0002FB939460398FFF74DF93D46EBE76269D9
:1019B000C2F30803002B76D1039B5B89013B13EA3A
:1019C000522313D12AB9A068012809D802256574C9
:1019D000CBE7A16920680193FEF7EEFF019BF3E7D7
:1019E000421C02D101216174C0E7A061DDF80CA0A6
:1019F000A16901935046FEF734FD019B20B90225F1
:101A0000657429465046B2E7B7F5007F03EB00083E
:101A10002BD37E0ABAF80A209AF80100991991424C
:101A200088BFD61A33464246494600F084FA002859
:101A3000D8D194F91030002B0BDAE069A0EB080044
:101A4000B04206D24FF40072009909EB4020FEF735
:101A500037FD7602DBF800303344CBF800306369A1
:101A6000BF1BB1441E4466619AE7E269424518D043
:101A700094F91030002B0BDA012300999AF8010039
:101A800000F06DFA0028ADD1237C03F07F032374AE
:101A90000398009940780123424600F04CFA002850
:101AA000A0D1C4F81C806169009BC1F30801C1F595
:101AB0000076BE4228BF3E46324619444846FEF7ED
:101AC000FFFCC7E7F7B501A90446FFF7C6F80546CE
:101AD000002843D1237C13F040053FD01B0614D5CA
:101AE0000198E2694078012304F1280100F037FAF7
:101AF00038B101210198FFF7A5F80125284603B068
:101B0000F0BD237C03F07F03237400F04EFA216ABA
:101B100007460198FEF717FD0546F8B9666AF37A9D
:101B200043F02003F372A26820683146FEF7DFFC21
:101B3000E16806F11C00FEF77EFC394606F116004E
:101B4000FEF779FC0198B5740123F574C370FFF7B3
:101B500049FC237C23F04003054623742946019861
:101B6000FFF770F8CAE737B50546FFF7ABFF044645
:101B700050B901A92846FFF770F8044620B928603B
:101B800001460198FFF75EF8204603B030BD2DE90D
:101B9000F3410E4601A90546FFF75FF8044608B970
:101BA0006C7C14B1214601988CE0EB68B34204D2FE
:101BB0002A7C12F0020F08BF1E4600226B696A6180
:101BC00076BB0026EA686B69934282BF2A7CEB6091
:101BD00042F04002C3F3080388BF2A74F3B1EA69F4
:101BE000B2421BD095F91030002B05F128070BDA13
:101BF000019801233946407800F0B1F9002844D11A
:101C00002B7C03F07F032B74019801233246394665
:101C1000407800F090F9002837D1EE610021C2E74A
:101C2000019A57897F021BB3013B721EB3FBF7F188
:101C3000B2FBF7F28A421BD37A421340A9696B6167
:101C4000F61A0029BDD0BE426B6923D86B693344B4
:101C50006B61C6F30803002BB3D0019A1046FEF760
:101C600000FC00283FD102246C742146104629E074
:101C7000A96869B92846FEF73AFF0128014602D152
:101C800002246C748EE7013001D10124F9E7A960C8
:101C9000A961D6E73B446B612B7C9A07A6EB07084A
:101CA00006D52846FEF723FF064628B90146CDE7AC
:101CB0002868FEF781FE0646731C019808D10124AE
:101CC0006C742146FEF7BEFF204602B0BDE8F081ED
:101CD000012E02D9C369B34201D80224F0E7AE61F4
:101CE00031464646AFE700EB56266BE730B5C5B048
:101CF00005460191002833D0002202A901A8FEF771
:101D00007FFC044690B9029B2B6003AADA6001991C
:101D10002846FFF71DFA044620BB95F92B30029C9C
:101D2000002B0BDBAB79DB0603D4052400232B60EF
:101D30000FE02078E969FEF7CCFBA860E388AB8070
:101D400000212846FEF792FE04280446EDD0002824
:101D5000ECD121460298FEF775FF204645B030BD14
:101D60000924FAE70428E0D0E0E737B501A90546E1
:101D7000FEF773FF044620B9286001460198FEF77C
:101D800061FF204603B030BDF0B5C3B00E466946D2
:101D90000546FEF762FF044628B95EB901462846AB
:101DA000FEF764FE044600982146FEF74BFF2046EE
:101DB00043B0F0BD009B01AADA602846FFF73AF96C
:101DC00010F0FB070446EED131462846FEF76DFFC2
:101DD00039462846FFF735F8042814BF0446002486
:101DE000E1E710B501200C4602F0EDF8206000306C
:101DF00018BF012010BD08B502F054FB012008BD3A
:101E000008B540F6B83102F03FFA431E5842584137
:101E100008BD00231A46194602F012B87F2810B5F3
:101E200001D880B210BDB0F5803F13D240F2B51397
:101E300099420FD10849002231F8024B844293B2F3
:101E400003D103F18000C0B2ECE70132802AF3D164
:101E50001346F6E70020E5E78ECE00007F280DD977
:101E600040F2B513994208D1FF2806D800F100408E
:101E7000034B803833F8100070470020704700BFD4
:101E80008ECE0000B0F5803FF0B521D21E4A1F492A
:101E900083B2B0F5805F28BF0A46141D34F8042CC5
:101EA0002146A2B1934212D334F8025C2E0AEDB25D
:101EB000AF18B84222DA082E09D8DFE806F0050A82
:101EC00010121416181A1C00801A34F81030184614
:101ED000F0BD981A00F001001B1A9BB2F7E7103B07
:101EE000FBE7203BF9E7303BF7E71A3BF5E7083320
:101EF000F3E7503BF1E7A3F5E353EEE70434002E9C
:101F0000CCD101EB4502C8E7E0CB0000D2CD000008
:101F100010B5044600F0E0FF34B900F00FF90446B4
:101F200000F0F4FF204610BD0424F9E708B900F0E2
:101F3000A3B904207047F8B507460C4615461E465F
:101F400000F0CAFF4FB92046F2B2294600F09CF9D2
:101F5000044600F0DBFF2046F8BD0424F9E7F8B59D
:101F600007460C4615461E4600F0B6FF4FB9204600
:101F7000F2B2294600F0CEF9044600F0C7FF204631
:101F8000F8BD0424F9E770B506460C46154600F086
:101F9000A3FF46B92046294600F010FA044600F097
:101FA000B5FF204670BD0424F9E70020704738B51E
:101FB00000F0FCFF00F5FA75FF2003F0B5FEFF20EE
:101FC00003F0B2FEFF28044603D000F0EFFF854285
:101FD000F5D8204638BDFFFF08B503F099FAFFF7A2
:101FE000E6FF03F09DFA034A137843F001031370F0
:101FF00008BD00BF0800001038B505460C46FFF7C5
:10200000D6FFFF2821D1204603F08EFEFD2C1ED0E6
:10201000AC1C05F2022514F8020C03F085FE023414
:1020200014F8030C03F080FEAC42F4D1FF2003F05F
:102030007BFEFF2003F078FEFF2003F075FE00F02A
:102040001F00431F5842584138BD0020FCE70120C3
:10205000FAE737B5020604460D4607D5002177207A
:10206000FFF7F7FF012831D804F07F0403F058FA96
:1020700003F04EFAFFF79BFFFF282BD1402C27D00F
:10208000482C0CBF872301232A0E8DF801202A0C2F
:102090008DF8022006212A0A68468DF800408DF846
:1020A00003208DF804508DF8053003F047FE4C2CCA
:1020B00002D1FF2003F038FE0A24FF2003F034FE93
:1020C000030603D5013C14F0FF04F6D103B030BD84
:1020D0009523D9E7FF20F9E770B5054600F066FFC4
:1020E00000F16406FF2003F01FFE044600F05EFFCF
:1020F000864201D3FF2CF5D0FE2C0CD14FF4007199
:10210000284603F01EFEFF2003F00EFEFF2003F022
:102110000BFE012070BD0020FCE7FFFF38B5064D27
:102120002C78E4B203F004FA18B104F0FD042C702A
:1021300038BD44F00304FAE7080000102DE9F3412C
:10214000FFF7ECFF4A4B1A7812F0020F1E4604D03C
:102150001878C0B202B0BDE8F081C82003F0ACFD31
:102160000A25FF20013D03F0DFFD15F0FF05F8D142
:1021700003F0CEF929464020FFF76BFF0128044603
:1021800071D100F013FF4FF4D57100F57A77482034
:10219000FFF75FFF012848D101ADA8460424FF20C6
:1021A00003F0C2FD013C14F0FF0408F8010BF6D166
:1021B0009DF80630012B56D19DF80730AA2B52D13D
:1021C00000F0F4FE874206D94FF08041E920FFF786
:1021D00040FF0028F4D100F0E9FE874243D90021F6
:1021E0007A20FFF736FF00283DD10424FF2003F0BA
:1021F0009BFD013C14F0FF0405F8010BF6D19DF89E
:10220000043013F0400F14BF0C240424194B1C702D
:1022100003F086F94CB3337845F6C05003F0FE0363
:10222000337003F049FD307893E72946E920FFF742
:1022300010FF022836BFE9254125022400F0B6FE32
:10224000874205D900212846FFF703FF0028F5D172
:1022500000F0ACFE874206D84FF400715020FFF723
:10226000F8FE0028D2D00024D0E7FFF7B5FEDAE769
:10227000080000108E03001008B5FFF74FFF014B58
:10228000187808BD0800001070B5144605460E46C3
:10229000FFF744FF002C35D01C4B1B78DA0733D4F2
:1022A00003F036F91A4B1B781B0758BF7602012C36
:1022B000314611D15120FFF7CCFE38B94FF40071EF
:1022C0002846FFF709FFB0FA80F4640903F028F903
:1022D000201C18BF012070BD5220FFF7BAFE002855
:1022E000F4D14FF400712846FFF7F6FE28B1013C07
:1022F00014F0FF0405F50075F3D100214C20FFF721
:10230000A8FEE3E70420E6E70320E4E70800001066
:102310008E03001070B5144605460E46FFF7FEFE0C
:10232000002C41D0234B1A78D0073FD41B78590793
:102330003ED403F0EDF8204B1B781A0758BF760205
:10234000012C11D131465820FFF783FE50BBFE21EE
:102350002846FFF751FEB0FA80F4640903F0E0F874
:10236000201C18BF012070BD13F0060F03D02146BA
:10237000D720FFF76EFE31465920FFF76AFE00288E
:10238000ECD1FC212846FFF737FE28B1013C14F0C0
:10239000FF0405F50075F4D1FD210020FFF72CFEA8
:1023A0000028DBD10124D9E70420DCE70320DAE7A9
:1023B0000220D8E7080000108E0300107FB5064603
:1023C0000D46FFF7ABFE052E15D12C78012C10D051
:1023D0002CB1022C0AD00424204604B070BD03F0B6
:1023E000A7F80028F8D0FFF7F7FDF5E703F0A0F80D
:1023F00068700024F0E76F4B1C7814F0010440F083
:10240000D7800E2E00F2D280DFE806F008134E527D
:10241000D0D0D0D0D0D09DA1B0B3C40003F078F814
:10242000FFF7C5FDB0F1FF0418BF012403F078F8F1
:10243000D2E700214920FFF70CFE044608B1012431
:10244000F4E710216846FFF747FE0028F7D09DF813
:1024500000309DF808109B09012B9DF8093006D12A
:102460005A1C02EB012292B292022A60DEE79DF82A
:1024700007209DF80A00920002EB91129DF80610C9
:10248000890201F4406101320A449DF805105B00A5
:1024900001F00F0101EBD01103F006030B44073BE1
:1024A00002FA03F32B60C1E74FF400732B80BDE702
:1024B000414E317811F004011CD00021CD20FFF7EE
:1024C000C8FD0028BBD1FF2003F02EFC1021684678
:1024D000FFF702FE0028B2D03024FF20013C03F0B9
:1024E00023FC14F0FF04F8D19DF80A301A091023D8
:1024F0009340D7E74920FFF7ACFD044600289ED162
:1025000010216846FFF7E8FD002898D032789DF842
:102510000A309DF80B1092070AD55B009DF80D203C
:1025200003F07E0303EBD11392090133013ADFE795
:10253000CA0002F01802C3F3840302EB5112013304
:1025400002FB0333AEE71C4B1B782B706EE70021B8
:102550004920FFF77EFD00287FF471AF1021284647
:10256000FFF7BAFDB0FA80F464095FE700214A2062
:10257000EFE700217A20FFF76CFD044600287FF486
:102580005EAF2E1DFF2003F0CFFB05F8010BAE421E
:10259000F8D14BE70021CD20FFF75BFD00287FF449
:1025A0004EAFFF2003F0C0FB4021D8E704243DE7F5
:1025B000032411E7080000108E03001008B506463A
:1025C00005F035FC00240546A54200DCFEE7315D40
:1025D000002003F0A1FC0134F6E7FFFF02280CD92C
:1025E000074B1B685A68824207D09A68824204D01F
:1025F000DB681B1A5842584170470120704700BFE2
:10260000B401001008B50148FFF7D8FF8ECF0000D5
:102610000020704700207047F8B504460E46154666
:10262000FFF7DCFF48B3164B1B68DB68A34210D0F2
:10263000A31E5C425C4102F083FD0746002003F0CC
:1026400029FC022F17D1B0B1ACB9A54203DC284652
:10265000F8BD0124EFE7315D4FF0FF32002003F0B9
:10266000BDFC0134F1E7315D002003F055FC01347D
:10267000A542F8DCEBE70024FAE70248FFF79EFFEB
:10268000B4010010E6CF000008B5FFF7A7FF18B1AE
:10269000002003F079FC08BD0148FFF78FFF00BF61
:1026A000B4CF00002DE9F84F064614468846104680
:1026B0001B49DFF87C90DFF87CA0DFF87CB000F0ED
:1026C000CAFEB36821464046984735680DB9BDE853
:1026D000F88F6F68384605F0AAFB32288CBF514648
:1026E00049463B462A68204600F0B5FE594620463A
:1026F00000F0FCFF0B490746204600F0F7FF07B942
:1027000018B10949204600F010FF0849204600F0A2
:102710000CFFB368214640469847ED68D6E700BFF6
:1027200019D0000060D0000091D200005FD00000FE
:1027300075D0000062D0000081D0000030B50429BF
:102740004FF0000538BF04210560C0E90112C360E5
:1027500030BD11B10368CB60016070472DE9F041D5
:10276000144605460F461046424901F003F8424917
:10277000204600F02BFF002833D03F49204600F0D0
:10278000FCFE28B1224639462846FFF78BFF68E059
:102790002021204600F0B8FFDFF8F0802E680EB947
:1027A0002E6810E042463168204600F026FF0028DF
:1027B00038D1F668F3E76A683168204600F0F2FE27
:1027C00000282FD1F668002EF5D131462B4A20463D
:1027D00000F081FEAB68214638469847AB68254932
:1027E0003DE02E68DFF8A4800EB92E680EE0424668
:1027F0003168204600F001FFB8B9F668F4E76A686E
:102800003168204600F0CEFE78B9F668002EF6D189
:1028100031461B4A204600F05EFEAB682146384632
:102820009847AFE7AB687168D6E72021204600F0F3
:102830006BFFB368AA6821463846984788B1114AA9
:102840000021204600F047FEAB68214638469847F5
:102850000D497268204600F0FEFDAB6821463846FF
:102860009847E96821B1AB683846BDE8F0411847A0
:10287000BDE8F0815FD0000083D00000B6D000003A
:10288000DFD0000088D0000099D0000080E1000077
:1028900010B54C1E14F8010F00B910BD05F01CF95D
:1028A000F8E7FFFF70B5A0B006461B4A80216846D6
:1028B00000F006FE0446304622460021FFF74EFF98
:1028C000204600F0B7FD204600F0B9FE0028F2D106
:1028D00004F076F8C5B2082D16D1204600F095FD1B
:1028E00060B10121204600F0F0FE284605F0F4F822
:1028F000202005F0F1F8284605F0EEF8204600F01B
:102900008AFD0028DFD0D6E7284605F0E5F82946FD
:10291000204600F026FEF1E783D0000030B589B0F4
:1029200004AD2846184B194A194C0421FFF706FF3D
:1029300095E80F0084E80F0020461649FFF709FFCD
:1029400020461549FFF705FF20461449FFF701FF10
:1029500020461349FFF7FDFE20461249FFF7F9FE16
:1029600020461149FFF7F5FE104B0293104B0193DF
:10297000032300934FF4007223460E490E4801F0E2
:1029800033FF09B030BD00BF10D100009128000016
:10299000900300105C0000104C0000101C000010A0
:1029A0000C0000103C0000102C000010A00B0010C8
:1029B000A003001063D10000A52800002DE9F0431A
:1029C000E7B00DF198084FF4807281460E464046FC
:1029D000002104F043F8802106A800F0F3FC05AFC5
:1029E00001233B6005460024009704AB03AA20495D
:1029F0004846CDE9034400F03BFD012831D93B684E
:102A000000939DF810209DF80C104346022003F01F
:102A100035F88146E8B1039A1649DFF864902846F4
:102A200000F019FD29462046B0473B68A34202D872
:102A300067B0BDE8F083049A18F80430009322448C
:102A40004946284600F007FD29460020B0470134DA
:102A5000EBE70949284600F01CFD29464846B047E7
:102A6000E6E70649284600F014FD29462046F6E729
:102A70003ED300004BD300007CD30000A9D300005C
:102A800065D300002DE9F043E7B000240DF198086C
:102A90004FF4807281460F4640462146CDE90344FB
:102AA00003F0DCFF802106A800F08CFC04AB064696
:102AB00003AA2949484600F0DBFC022844D1202122
:102AC000484600F021FE2021484600F01DFE0594F6
:102AD00005A9484600F026FE0546D0B900944346B5
:102AE0009DF810209DF80C10022003F001F881469B
:102AF00010B3039B1949DFF870902246304600F06E
:102B0000AAFC31462846B847AC4207D167B0BDE8B9
:102B1000F083059B08F804300134D9E7049A18F8CB
:102B2000053000932A444946304600F094FC314673
:102B30000020B8470135E7E70949304600F0A9FC15
:102B400031464846B847E1E70649304600F0A1FC67
:102B500031462046F6E700BFE9D30000F3D300007A
:102B60002AD4000058D4000013D40000F8B50D4654
:102B700028460E49164600F029FD0D490446284610
:102B800000F024FD20210746284600F0BDFD2CB1B1
:102B900031462846FFF712FF0020F8BD27B1314625
:102BA0002846FFF76FFFF7E70120F6E733D3000071
:102BB00038D3000038B5032014460D4600F0FFF965
:102BC00005490020A04729460020A04703490020CE
:102BD000A047002038BD00BF77D500005FD00000BF
:102BE0000123024A1A600020704700BFEFBEADDE2D
:102BF0002DE9F04F89B0084604AF0D46914600F02C
:102C000017FC041E04DD02F0AFFB204602F012F8B0
:102C1000DAB00024FC6000F0FFFA0DF1100B7860D0
:102C200007F10C020A21584602F03EFA224A3860A7
:102C30002249284600F00FFC29462046C847A046F6
:102C40005E464FF0000A20E0736943451AD1B2692D
:102C5000FB68144423B16421B3FBF1F3B2FBF3F33B
:102C6000317BCDE90232338C9B00CDE90083144BDC
:102C7000726853F821301349284600F0ECFB2946CE
:102C80000020C8470AF1010A24363B685345DBD1CE
:102C900008F10108B8F10A0FD2D17B680A491A1B62
:102CA000284600F0D8FB29460020C84700201437EA
:102CB000BD46BDE8F08F00BF19D500001ED500004D
:102CC000ACD5000049D5000066D5000038B50C46EB
:102CD00020461649154600F079FCA0B1144920465B
:102CE00000F0DAFC204601F0C9FF40B90021114A8A
:102CF000204600F0F0FB21460020A84701E002F04A
:102D000059F8002038BD0C49204600F05FFC58B14E
:102D10000A49204600F0C0FC204601F0AFFF002821
:102D2000E4D001F0FBFDECE70549E6E7B0D4000094
:102D3000B8D40000C1D40000E2D40000E9D40000FF
:102D4000F1D4000010B50C462046064900F0A4FC62
:102D5000054800234FF0FF322146006801F070F86B
:102D6000002010BDAAD40000E8240010F8B50446E5
:102D70000D4600F005F9061941EB050702F0E0F9F0
:102D800002280CD100234FF47A72AB4208BFA24252
:102D900005D22046294603F00DFC01F04BFF00F060
:102DA000EFF8B94208BFB042F9D3F8BD4FF47A73D7
:102DB000A0FB0301FFF7DABF30B585B002F026FBB8
:102DC00002F0C0FB8DF80C0002F0C2FB8DF80D0084
:102DD00002F0C4FB8DF80E0002F0C6FB00248DF853
:102DE0000F0004AA04F003031344013413F8040C85
:102DF00002F086FC3220FFF7D9FF202CF1D1284BBE
:102E00001868002319460222406804F0FFFEFDF70F
:102E100009FA002501464FF4E132002002F0F6FFE6
:102E20000095204B204A0121204600F099FF1F4BBE
:102E3000009504461E4A0121802000F091FF2246A1
:102E40000146284603F030F845F6C05002F04AFF2C
:102E5000012218491848FEF759FC184A184B19491D
:102E6000A84208BF1346184A1848194D04F01CFE22
:102E7000FDF7D8F917490246022002F0A7FD022407
:102E8000E1B2022002F05CFE18B12146284604F0AF
:102E90000BFE0234B4F5807FF2D105B030BD00BF27
:102EA000B40100101C0C0010FC0B0010240F0010CB
:102EB000A40E001061D000006C0C0010D1D50000F1
:102EC000EFD5000016D60000C0D5000067D6000080
:102ED00087D60000801A060010B50A4C236823B973
:102EE0000949012001F05AF8206002F029F902286E
:102EF00006D120684FF0FF31BDE8104001F0C4B9A1
:102F000010BD00BF740F0010780F001010B502F054
:102F100017F9022808D1054800231A461946006807
:102F2000BDE8104000F08CBF10BD00BF740F001052
:102F3000074A08B51368002101330846136002F000
:102F400039FC00210846BDE8084002F01FBC00BF64
:102F5000C80F001008B5074A0749B0FBF1F100207F
:102F6000013902F0DDFB0021044A0846BDE80840B3
:102F700002F0FABB312F000040420F00008793039C
:102F800070B5084E002002F00DFC054600203468A4
:102F900002F008FC8542F5D8034B0021E3FB040155
:102FA00070BD00BFC80F00100087930308B5FFF77E
:102FB000E7FF4FF47A72002303F0FCFA08BD70B506
:102FC000054608460C4604F032FF2618B4424FF07E
:102FD000FF320BD10D21284603F000F828464FF0B0
:102FE000FF320A21BDE8704002F0F8BF14F8011B5F
:102FF000284602F0F3FFE9E770B5054608460C469F
:1030000004F015FF2618B44205D128460A21BDE870
:10301000704002F081BF14F8011B284602F07CFFCB
:10302000F1E70146022002F077BFFFFF01380228D6
:1030300098BF104B70B598BF1E560C464FF002005B
:103040004FF0FE0188BF0026154602F065FFA4F18F
:1030500080013144C9B2022002F05EFF00242846FC
:1030600004F0E5FE844200D370BD285DFFF7D9FF70
:103070000134F4E7AED6000008B57C21022002F04E
:103080004BFF2D210220BDE8084002F045BFFFFFA5
:1030900008B5FDF7C7F84FF416520146022002F0BA
:1030A000B5FE054AD2F8203143F00203C2F82031C0
:1030B000BDE80840FFF7E0BF00C0024000B59BB08C
:1030C0000146684600F00CF9FFF7D6FF002101AA7F
:1030D0000846FFF7ABFF0DF1420200210120FFF788
:1030E000A5FF0DF1230200210220FFF79FFF044AF4
:1030F00000210320FFF79AFF1BB05DF804FB00BF1F
:10310000B1D6000010B50446FFF7B6FF002108460F
:10311000094AFFF78BFF224600210120FFF786FFB7
:10312000064A00210220FFF781FF054A0021032003
:10313000BDE81040FFF77ABFC2D6000061D00000A2
:10314000CED6000010B50446FFF796FF00212246B8
:103150000846FFF76BFF084A00210120FFF766FFD2
:10316000064A00210220FFF761FF054A00210320E3
:10317000BDE81040FFF75ABFE2D60000EFD60000CE
:10318000FDD600000C460020044908B5FFF734FFC7
:1031900021460020FFF730FFFEE700BF43D80000C4
:1031A00008B502490020FFF727FFFEE709D8000015
:1031B000024B0022C3F8C02030BF704700C00F4050
:1031C00008B50C4600200A49FFF716FF0949002000
:1031D000FFF712FF08490020FFF70EFF0749002004
:1031E000FFF70AFF21460020FFF706FFFEE700BFBA
:1031F00011D7000063D70000A6D70000DAD700007F
:10320000034B0360034B0B6064231360704700BFE4
:1032100068110010D80F001008B5FFF7B1FE024B7F
:103220001B68C01A08BD00BFD00F001008B5FFF71B
:10323000A7FE024BC3E9000108BD00BFD00F00107C
:103240002DE9F0418CB016496846FEF74FFD18BBDA
:10325000144DDFF85C8005F1160712496846FEF749
:1032600093FDB0B9AB7DA3B12B7ADB06F5D4414613
:10327000384604F02CFE0028EFD00B4E0B48346883
:103280007F2200EBC4103946013404F00DFE346097
:10329000E3E76846FEF769FD0CB0BDE8F08100BFCA
:1032A000ECD80000C41100105C2200105C12001069
:1032B000B0D10000014B1868704700BF5C220010BD
:1032C000044B1B68834286BF034B03EBC0100348CB
:1032D000704700BF5C2200105C12001061D000003B
:1032E00030B50C46ADF5277D05462F4804F0DCFBD4
:1032F000214601221CA8FEF741FA044601462B484C
:1033000004F0D2FB002C4BD11F991CA88039FEF78A
:103310003EFC0146264804F0C7FB01AB032202A98C
:103320001CA8FEF711FB01AB1E2203A91CA88DF8F7
:103330000B40FEF709FB01AB1E220DF12B011CA86F
:103340008DF82A40FEF700FB01AB1E220DF14A0169
:103350001CA88DF84940FEF7F7FA01AB04220DF1E5
:1033600069011CA88DF86840FEF7EEFA0146114885
:103370008DF86D4004F098FB02A90F4804F094FB0F
:1033800001990E4804F090FB1CA8FEF7ECFB6622A6
:1033900002A9284603F03AFB28460DF5277D30BDEB
:1033A000074804F01BFCF2E760D800007BD800005F
:1033B0008FD80000A4D80000B8D80000C6D80000FC
:1033C000D6D8000038B50D46044658B103290BD9AC
:1033D0000A46002103F042FB23462A0A03F8022B87
:1033E00065701C46204638BD0024FBE710F8023CFF
:1033F00010F8010C40EA0320033880B2704708B58A
:10340000FFF7F4FF013080B208BD08B510B104F039
:103410000EFD80B208BD10B50446FFF7F6FF024668
:103420002046FFF7E3FF824234BF0020012010BD99
:1034300003F042BA00230370704710B50446FFF74B
:10344000DEFF13460A460146204605F0F7FB20EA58
:10345000E07080B210BD0EB403B503AA52F8041B8D
:103460000192FFF7EAFF02B05DF804EB03B070478A
:103470000EB403B503AA52F8041B019205F010FC28
:103480000028CCBF80B2002002B05DF804EB03B08E
:10349000704738B505460C46084671B104F0C7FCC4
:1034A00001462846FFF7A2FF89B28142024605D8AD
:1034B0002146284604F0F8FC012038BD0020FCE736
:1034C00038B51546FFF77EFF044610B12946FFF7D1
:1034D000E0FF204638BD2DE9F04105460F46144671
:1034E0000AB3FFF792FFB84206461CD3204604F009
:1034F0009EFC32188046284692B2FFF777FF824240
:1035000011D8C7F101023D44324492B2294605EB7D
:10351000080003F089FA42462146284604F0C4FC1C
:103520000120BDE8F0810020FBE770B506460C469F
:10353000A9B1FFF76AFF0546204604F078FC82B285
:10354000A918304689B2FFF751FF884207D30132EC
:1035500092B22146701903F059FA012070BD002083
:10356000FCE707B500238DF8041001A98DF805309C
:10357000FFF7DBFF03B05DF804FB08B529B104F0E9
:103580002DFCB0FA80F0400908BD0846FCE710B5F4
:10359000044621B104F09BFC08B1001B10BD4FF0A4
:1035A000FF30FBE770B5064615460C4661B1FFF7E4
:1035B0002CFFA84208D32A462146304604F062FC7C
:1035C000B0FA80F0400970BD0020FCE770B50546F8
:1035D0000C4681B1FFF719FF0646204604F027FC90
:1035E0008642024607D32146284604F029FCB0FA59
:1035F00080F0400970BD0020FCE72DE9F04107464E
:1036000014460D46C9B1C2B1FFF7FFFE80462846F9
:1036100004F00DFC804506460FD302462946384685
:1036200004F030FC48B9B85D237883421ABFB0FA81
:1036300080F040090120BDE8F0810020FBE710B5D3
:103640000446FFF7E2FE40B1013880B2205C0D284D
:1036500004D0A0F10A035842584110BD0120FCE7F4
:1036600070B50C4605461646FFF7CFFEA04211D9AD
:10367000011BB142C4F101030A461844A8BF3246F7
:10368000801A14FA82F1294482B2281903F0CCF985
:10369000012070BD0020FCE770B505460E4671B1F3
:1036A000FFF775FF431C044609D0304604F0BFFB0A
:1036B000A1B282B22846BDE87040FFF7D1BF00201A
:1036C00070BD0A460021FFF7CBBF38B50C46054652
:1036D000FFF79BFEA04224BF001B81B22246284672
:1036E00038BF0021BDE83840FFF7BABF10B5044627
:1036F00004F0EDFB031E1FBF1B1B9BB20022012029
:103700000CBF0020E25410BD10B5044604F082FB4B
:1037100038B1011B0131204689B2BDE81040FFF7E6
:10372000D0BF10BD70B50646054611480C462B4665
:1037300013F8011BC9B10A5C520714D524B12846FD
:1037400003F0BAF820600124094A294615F8013B24
:1037500013B19B5C5B07F8D4891B89B23046FFF735
:10376000B0FF204670BD1D46E1E70C46ECE700BF08
:1037700077E00000F8B506460C46C9B1FFF745FEF4
:103780000546204604F053FB6B1E33442044013EA3
:103790000021B34202D02246824201D1012008E03A
:1037A00012F8015B1F78AF42F6D103F80119F0E778
:1037B0000846F8BD00F074B800F0BAB800F0EAB8F6
:1037C00010B5044601F026F9204603F00FF904462F
:1037D00001F0BAF90CB9FFF7E3FC204610BD10B5B3
:1037E000044640B101F016F9204603F007F9BDE8A0
:1037F000104001F0A9B910BD08480068006880F3C6
:1038000008884FF0000080F3148862B661B6BFF3F9
:103810004F8FBFF36F8F00DF00BF000008ED00E0A7
:10382000DFF80C00016841F470010160704700008E
:1038300088ED00E007B5002301930B4B1B680133B3
:1038400004D00A49EF20FFF7BBFCFEE74FF0180356
:1038500083F31188BFF36F8FBFF34F8F019B002B52
:10386000FCD003B05DF804FB68220010EED8000025
:103870004FF0807340F8043C074B40F80C3C21F0BB
:1038800001016FF0020340F8081C40F8202C40F8BA
:10389000243C4438704700BF35380000FFFFFFFF6D
:1038A000074B19680868B0E8F04F80F30988BFF348
:1038B0006F8F4FF0000080F311887047AFF30080E6
:1038C0006C22001008B54FF0180383F31188BFF382
:1038D0006F8FBFF34F8F094A13680133012B1360B9
:1038E0000AD1074B1B6813F0FF0F05D0054940F2C2
:1038F000AB10FFF765FCFEE708BD00BF68220010B3
:1039000004ED00E008D90000074A08B513682BB998
:1039100006494FF4D970FFF753FCFEE7013B1360F3
:103920000BB983F3118808BD682200103DD900004F
:10393000EFF30980BFF36F8F154B1A681EF0100F5D
:1039400008BF20ED108A20E9F04F10602DE9090032
:103950004FF0180080F31188BFF34F8FBFF36F8FC4
:1039600001F0CAF94FF0000080F3118809BC196812
:103970000868B0E8F04F1EF0100F08BFB0EC108AD6
:1039800080F30988BFF36F8F704700BFAFF30080EB
:103990006C22001008B54FF0180383F31188BFF3B1
:1039A0006F8FBFF34F8F01F03DF818B1034B4FF00D
:1039B00080521A60002383F3118808BD04ED00E0F3
:1039C00010B5084A084C002323601360FCF726FC5E
:1039D0004FF47A73B0FBF3F0044B013818600723FF
:1039E000236010BD18E000E010E000E014E000E00B
:1039F000334B344A13B51968914205D132494FF41B
:103A00009A70FFF7DDFBFEE71A68304B9A4205D14A
:103A10002F4940F23510FFF7D3FBFEE72D4B1A7804
:103A2000D2B20192FF221A701B782B4ADBB28DF8BA
:103A300003309DF8033003F018031370274A07235F
:103A4000136000219DF80300000603F1FF3409D440
:103A500011B1022B13600ED0214940F25D10FFF727
:103A6000AFFBFEE79DF803305B00DBB28DF803305F
:103A700001212346E6E74FF400731360019B154ACA
:103A8000DBB21370174B1A6842F478021A601A6896
:103A900042F078421A60FFF793FF134B00241C603A
:103AA000FFF7BEFE114A136843F040431360FFF76F
:103AB000A3FE01F021F9FFF7BDFE204602B010BDC4
:103AC00000ED00E071C20F41BBD9000070C20F4190
:103AD000DED9000000E400E0602200106422001043
:103AE00001DA000020ED00E06822001034EF00E071
:103AF00008B5EFF305830F2B0BD90D4A9B5C0D4ADC
:103B000012789A4205D90C4940F2FE20FFF758FB83
:103B1000FEE70A4B0A4A1B68126803F4E06393420B
:103B200005D9084940F20E30FFF74AFBFEE708BD11
:103B3000F0E300E0602200104FD900000CED00E03F
:103B40006422001079D9000000F108034FF0FF3221
:103B50004360C0E902230361002303607047002330
:103B60000361704743684B609A688A609A68516045
:103B70009960036808610133036070470A68531C49
:103B800030B50AD103695A684A6091608B60596008
:103B9000036808610133036030BD00F108035C680D
:103BA00025689542EFD82346F9E7D0E90112036969
:103BB0008A6051605968814208BF5A6000220261E0
:103BC0001A68013A1A601868704710B50446FFF782
:103BD00079FEA46BFFF798FEB4FA84F0400910BD9B
:103BE000F8B51546026C866B044652B9076847BBA8
:103BF000806801F007FBA76005460136A6632846EA
:103C0000F8BD65B9406802F001FF6368226C134497
:103C1000A26863609342F0D323686360EDE7C068F5
:103C200002F0F4FE236CE26821685B421A448A4287
:103C3000E2603EBFA2689B18E360022D01D116B17D
:103C4000013E0025D9E73546D7E7034610B41A6C84
:103C5000084662B1D9689C681144A142D96024BF6A
:103C60001968D960D9685DF8044B02F0CFBE5DF8E1
:103C7000044B704770B50446FFF724FE94F8455096
:103C800004F124066DB2002D14DCFF2384F84530C6
:103C9000FFF73AFEFFF716FE94F8445004F11006C1
:103CA0006DB2002D12DCFF2384F84430BDE8704073
:103CB000FFF72ABE636A002BE7D0304601F0FCF81C
:103CC00008B101F07FF9013D6DB2DCE72369002BFB
:103CD000E9D0304601F0F0F808B101F073F9013D88
:103CE0006DB2DEE738B50D46044628B91A4940F2F0
:103CF0000310FFF765FAFEE7FFF7E4FDD4E90F30A4
:103D0000226862604343D1181B1A1344A160E36028
:103D10000021FF23A16384F8443084F8453095B92D
:103D2000236963B104F1100001F0C6F838B10B4B00
:103D30004FF080521A60BFF34F8FBFF36F8FFFF7C2
:103D4000E3FD012038BD04F11000FFF7FDFE04F192
:103D50002400FFF7F9FEF2E707DB000004ED00E0C6
:103D600013B51C4628B91E494FF49D70FFF728FA79
:103D7000FEE72BB91B494FF49F70FFF721FAFEE7CE
:103D800032B161B918494FF4A170FFF719FAFEE793
:103D900029B1164940F24310FFF712FAFEE750230B
:103DA0000193019B502B05D0114940F24B10FFF7B6
:103DB00007FAFEE7002908BF2246019B2260012383
:103DC000C4E90F0184F8463019462046FFF78AFF00
:103DD0009DF8103084F84C30204602B010BD00BF72
:103DE00044DA000066DA00007CDA0000B4DA000091
:103DF000ECDA0000F8B50D461746064628B90F491B
:103E00004FF4BB70FFF7DCF9FEE748435030FFF793
:103E1000D7FC044670B1002380F8463065B100F14C
:103E200050032360C4E90F6501212046FFF75AFFC4
:103E300084F84C702046F8BD0346F2E744DA0000EF
:103E40002DE9FF47884601921F46044628B94E498E
:103E500040F2F120FFF7B4F9FEE739B9036C2BB15A
:103E60004A4940F2F220FFF7ABF9FEE7022F08D1F2
:103E7000E36B012B05D0464940F2F320FFF7A0F990
:103E8000FEE701F05DF9064638B9019B33B14149BF
:103E900040F2F620FFF794F9FEE700264FF0000904
:103EA000DFF8F4A037E0019D1DB9FFF72DFD0020DC
:103EB00050E016B902A801F03FF8FFF725FD00F029
:103EC000A9FDFFF7FFFC94F84430FF2B08BF84F8EE
:103ED000449094F84530FF2B08BF84F84590FFF7D5
:103EE00013FD01A902A801F033F8002846D1FFF71D
:103EF000E9FCA26BE36B9A422FD1FFF705FD019914
:103F000004F1100000F0C0FF2046FFF7B3FE00F000
:103F10001BFE50B30126FFF7D5FCA26BE36B9A4260
:103F200001D3022FBFD13A4641462046FFF758FE43
:103F3000636A1BB104F1240000F0BEFF38B1164BD8
:103F40004FF080521A60BFF34F8FBFF36F8FFFF7B0
:103F5000DBFC012004B0BDE8F087FFF7D5FC20466C
:103F6000FFF788FE00F0F0FDD4E74FF08053CAF869
:103F70000030BFF34F8FBFF36F8FCBE72046FFF7C3
:103F800079FE00F0E1FD92E707DB00000FDB0000A7
:103F90005FDB0000A6DB000004ED00E013B50022AB
:103FA00000900B4601201146FFF7DAFE044638B1B7
:103FB000002383600360C3601A461946FFF740FF81
:103FC000204602B010BD10B5024600210120FFF7C7
:103FD00011FF044638B1002383600360C3601A46B2
:103FE0001946FFF72DFF204610BDFFFF2DE9F843CE
:103FF000894690461F46044628B9284940F2C330F6
:10400000FFF7DEF8FEE739B9036C2BB124494FF412
:104010007170FFF7D5F8FEE7022F08D1E36B012B93
:1040200005D0204940F2C530FFF7CAF8FEE7FFF798
:104030005FFDEFF311864FF0180383F31188BFF390
:104040006F8FBFF34F8FA26BE36B9A4201D3022FA6
:1040500022D194F845503A466DB249462046FFF7C2
:10406000BFFD6B1C13D1636A0BB901200BE004F197
:10407000240000F021FF0028F7D0B8F1000FF4D0A1
:104080000120C8F8000086F31188BDE8F8830135E7
:104090006DB284F84550E8E70020F4E707DB000044
:1040A0000FDB00005FDB000070B50D46044628B949
:1040B00023494FF48C60FFF783F8FEE7036C2BB1C4
:1040C000204940F26440FFF77BF8FEE703683BB904
:1040D00083682BB11C4940F26940FFF771F8FEE795
:1040E000FFF706FDEFF311864FF0180383F31188F5
:1040F000BFF36F8FBFF34F8FA26BE36B93421CD95B
:1041000094F8453001325BB2A2635A1C10D1636A45
:104110000BB9012009E004F1240000F0CDFE0028D5
:10412000F7D0002DF5D00120286086F3118870BDEE
:1041300001335BB284F84530EBE70020F5E700BFC0
:1041400007DB0000FCDB000015DC00002DE9F0437C
:1041500085B00F460192044628B947494FF4A06044
:10416000FFF72EF8FEE739B9036C2BB1434940F253
:104170000450FFF725F8FEE700F0E2FF064638B9E5
:10418000019B33B13E4940F20950FFF719F8FEE7B1
:1041900000264FF00008DFF8EC903BE0019D1DB9D0
:1041A000FFF7B2FB002052E016B902A800F0C4FEEF
:1041B000FFF7AAFB00F02EFCFFF784FB94F84430D5
:1041C000FF2B08BF84F8448094F84530FF2B08BFCC
:1041D00084F84580FFF798FB01A902A800F0B8FE1B
:1041E00000283DD12046FFF7F0FC98B3019904F177
:1041F000240000F049FE2046FFF73CFD00F0A4FC3F
:1042000038B94FF08053C9F80030BFF34F8FBFF378
:104210006F8F0126FFF756FBA56B002DBED03946E8
:104220002046013DFFF711FDA563236963B104F149
:10423000100000F041FE38B1124B4FF080521A606E
:10424000BFF34F8FBFF36F8FFFF75EFB012005B009
:10425000BDE8F0832046FFF70DFD00F075FCD8E7C0
:104260002046FFF707FD00F06FFC2046FFF7ADFC8E
:104270000028CED096E700BF7CDC000088DC000080
:10428000A6DB000004ED00E02DE9FF4104460191AA
:1042900028B9584940F29150FEF792FFFEE7056CAD
:1042A0002DB1554940F29550FEF78AFFFEE700F028
:1042B00047FF064638B9019B53B1504940F29A5026
:1042C000FEF77EFFFEE72E460027DFF838814EE03E
:1042D0000546F9E7019B4BB92DB1494940F2E15040
:1042E000FEF76EFFFEE7FFF70FFB5EE016B902A8D0
:1042F00000F022FEFFF708FB00F08CFBFFF7E2FA6C
:1043000094F84430FF2B08BF84F8447094F845308B
:10431000FF2B08BF84F84570FFF7F6FA01A902A841
:1043200000F016FE00284AD12046FFF74EFC002878
:104330003FD023683BB9FFF7C5FAA06800F010FF33
:104340000546FFF7E1FA019904F1240000F09CFD15
:104350002046FFF78FFC00F0F7FB38B94FF0805391
:10436000C8F80030BFF34F8FBFF36F8F0126FFF700
:10437000A9FAA36B002BADD0013BA363236813B94B
:1043800000F0E6FFA060236963B104F1100000F0C3
:1043900093FD38B11B4B4FF080521A60BFF34F8F23
:1043A000BFF36F8FFFF7B0FA0125284604B0BDE8D0
:1043B000F0812046FFF75EFC00F0C6FBD6E7204602
:1043C000FFF758FC00F0C0FB2046FFF7FEFB00287B
:1043D000CCD0002DE9D0FFF775FA616A19B1236BD3
:1043E0001968C1F10A01A06800F05AFF0025FFF723
:1043F0008BFADAE77CDC0000FCDB0000A6DB0000C7
:1044000026DD000004ED00E02DE9F84389469046E2
:10441000054628B9214940F2FB60FEF7D1FEFEE7D0
:1044200039B9036C2BB11E4940F2FC60FEF7C8FE9F
:10443000FEE7FFF75DFBEFF311874FF0180383F3FF
:104440001188BFF36F8FBFF34F8FAC6B1CB395F820
:104450004460494676B22846FFF7F7FB013C731CDF
:10446000AC6313D12B690BB901200BE005F11000EF
:1044700000F022FD0028F7D0B8F1000FF4D00120A1
:10448000C8F8000087F31188BDE8F883013676B2DA
:1044900085F84460E8E72046F4E700BF07DB00004A
:1044A000DBDC000008B528B9064940F2B770FEF71A
:1044B00087FEFEE790F846301BB9BDE80840FFF7DD
:1044C0008EB908BD07DB00000268F0B503461AB3D9
:1044D00042685068586003F10802904204BFD868EF
:1044E00058605868C768586840685860824204BF7E
:1044F000506858605868C0684D1E00F1340400F1DF
:10450000400C14F801EB15F8016F764502D126B185
:104510006445F6D18742E6D10020F0BD43685B6870
:10452000436000F10802934204BFC36843604368DC
:1045300030B5DC6800255B689A4208BF5368D968CB
:104540008C420D65F7D1436030BDFFFF2DE9F0418E
:104550000446FFF7B7F92D4B2D4D1A682D4F013248
:104560001A602E68002E46D12C601B68012B1CD1CE
:10457000B84640460136FFF7E7FA0A2E08F114085C
:10458000F7D1DFF8B880244E4046FFF7DDFA304619
:10459000FFF7DAFA2148FFF7D7FA2148FFF7D4FAF4
:1045A000204BC3F80080204B1E60204A204913682E
:1045B000086801331360E26A2364012393400343D4
:1045C00014200B6000FB0270211DFFF7CBFAFFF7F0
:1045D0009BF9184B1B6863B12B68DA6AE36A9A424D
:1045E00007D2154B4FF080521A60BFF34F8FBFF3C5
:1045F0006F8FBDE8F0810F4B1B68002BD5D12B6866
:10460000DA6AE36A9A4298BF2C60CEE7442300102E
:104610006C220010782200106C2300108C230010F4
:10462000A4230010702200107422001050230010E8
:1046300054230010A023001004ED00E058230010C4
:1046400008B5074C074D4FF080562368012B04D95D
:104650002E60BFF34F8FBFF36F8FFEF7A9FDF4E716
:104660007822001004ED00E0064A13681968064B32
:1046700019B94FF0FF321A6070471268D268D268D9
:104680005268F8E7702200108423001008B528B99A
:10469000094940F20E70FEF793FDFEE74269074BB1
:1046A0009A4207D1806A064B984203D0B0FA80F054
:1046B000400908BD0020FCE74CDD0000A4230010E9
:1046C0008C2300102DE9F047DDE909644FEA8209E7
:1046D0004A4607460D46206BA521984602F0BEF9D2
:1046E000236BA9F10409994429F007099DB36B1EB6
:1046F00004F134020B3513F8011F02F8011B09B154
:10470000AB42F8D1002384F83F30089D092D28BF23
:1047100009254FF0000AE562A564201DC4F84CA0ED
:10472000FFF71DFAC5F10A0504F11800FFF717FAA3
:10473000C4F854A02461A5616462C4F850A084F850
:1047400058A0424639464846FFF792F8206006B125
:104750003460BDE8F08784F83450D6E7F8B51B4BD9
:104760001B4E1C680546306804300F46FFF71DFAE3
:10477000334640B93168174EC96A32680120884013
:1047800022EA000232606A1C07D137B11968124868
:104790000431BDE8F840FFF7E5B91A6864195460C0
:1047A00007D30E4A10681968BDE8F8400431FFF7D6
:1047B000E5B90B4A106819680431FFF7DFF9094BB6
:1047C0001A68A24288BF1C60F8BD00BFB823001061
:1047D0006C22001054230010A42300107422001037
:1047E000702200108423001070B586B0DDE90B54F0
:1047F0002DB9154940F24D20FEF7E2FCFEE72CB939
:10480000124940F24E20FEF7DBFCFEE75C260596DF
:10481000059E5C2E05D00E4940F25620FEF7D0FCD6
:10482000FEE72563022584F8595004AD01950A9DE1
:1048300002940095059EFFF745FF2046FFF786FE90
:10484000049806B070BD00BF2BDE000042DE000001
:1048500057DE00002DE9F043074685B090008846FA
:1048600016469946FEF7ACFF0546E8B15C20FEF718
:10487000A7FF0446A8B1002380F859300D9B0563BB
:1048800001930C9B0290009332464B4641463846BA
:10489000FFF718FF2046FFF759FE012005B0BDE8DD
:1048A000F0832846FEF79BFF4FF0FF30F6E7FFFF4F
:1048B000F8B5044628B914494FF4AD60FEF780FC02
:1048C000FEE7124B1B68834218D0FEF7FBFF104B2C
:1048D00065691F680F4B1E68FFF716F8BD4211D0BF
:1048E000B5420FD00C4B9D420AD1A36A53B994F83C
:1048F0005830012B0CBF02200320F8BD0020FCE73C
:104900000120FAE70220F8E746DD00006C220010E3
:104910007022001074220010A423001070B5044609
:1049200028B91A494FF4E760FEF74AFCFEE7184D34
:104930002B68834228D0FEF7C5FF2046FFF7A6FE6E
:10494000F0B1261D3046FFF730F91249E26A0868D7
:104950000123934003430B600F4B142000FB0230F4
:104960003146FFF7FFF82B68E26ADB6A9A4207D309
:104970000A4B4FF080521A60BFF34F8FBFF36F8F17
:10498000BDE87040FEF7C0BF70BD00BFB9DD0000DC
:104990006C220010542300107822001004ED00E077
:1049A00010B588B0002407AA06A905A8CDE90544DA
:1049B000FEF726FC059B0293069B079A0F491048B9
:1049C000CDE900432346FFF70FFF0E4B186090B16F
:1049D0004FF0180383F31188BFF36F8FBFF34F8F2E
:1049E000094B4FF0FF321A60084B01221A60084B46
:1049F0001C60FEF7FDFF08B010BD00BFD1DD000058
:104A0000414600008023001084230010A0230010E2
:104A1000B8230010024A136801331360704700BFC7
:104A20004C2300102DE9F84F3B4B1B68002B6BD13A
:104A30003A4B1C6801341C60A4B9394B1A681268DF
:104A40002AB1384940F67F20FEF7BAFBFEE7364A26
:104A50001968106818601160344A136801331360D4
:104A6000FFF702FE324D334F2B68A3424FF0000B8D
:104A700011D93A68304BD16A14224A439A58022A13
:104A800028BF4FF0010B2D4A1268002A0CBF584670
:104A90000120BDE8F88FDFF888A0DFF8A890DAF8E9
:104AA000002012681AB94FF0FF322A60E1E7DAF805
:104AB0000020D268D66871688C4201D22960D8E79C
:104AC00006F104084046FFF770F8B16A19B106F123
:104AD0001800FFF76AF8F06AD9F80030012202FAEC
:104AE00000F11943144BC9F800104FF0140C414663
:104AF0000CFB0030FFF736F83868F16AC26A914261
:104B000028BF4FF0010BCAE70D4A13680133136049
:104B10004FF0000BB7E700BF4C230010B823001084
:104B200070220010A2DE0000742200108823001002
:104B3000842300106C22001078220010BC23001087
:104B400048230010542300102DE9F8432F4C23680C
:104B50002BB92F4940F68500FEF732FBFEE7FEF742
:104B6000B1FE2368013B236024682CB10024FEF7CA
:104B7000CBFE2046BDE8F883264B1B68002BF5D002
:104B8000254D264EDFF8A8801FE0EB68DC6804F1B5
:104B9000040904F11800FFF708F84846FFF705F884
:104BA000E26A3168012707FA02F314200B4300FB85
:104BB000028049463360FEF7D5FF194BE26A1B6855
:104BC000DB6A9A4201D3174B1F602B68002BDCD1A4
:104BD0000CB1FFF749FD144D2C6844B1114E01276B
:104BE000FFF720FF00B13760013CF9D12C600D4B7D
:104BF0001B68002BBAD00D4B4FF080521A60BFF3E8
:104C00004F8FBFF36F8F0124B1E700BF4C2300101B
:104C100007DF0000442300108C23001054230010F1
:104C20006C220010BC2300104823001004ED00E0AB
:104C30007822001008B540B90D4B4FF080521A6031
:104C4000BFF34F8FBFF36F8F08BD0A4B196829B1AF
:104C5000094940F23C50FEF7B3FAFEE7FFF7DAFEEF
:104C6000FFF77CFDFFF770FF0028E5D0ECE700BF01
:104C700004ED00E04C2300107DDD00002DE9F04143
:104C8000054603F0D4F80B2805D9164940F67A10EA
:104C9000FEF796FAFEE7FFF7BDFEDFF858800A261A
:104CA0001427013E294607FB0680FFF70DFC04464A
:104CB00090B9002EF5D10C4B1868FFF705FC04469F
:104CC00050B90A4B29461868FFF7FEFB044618B98D
:104CD0000748FFF7F9FB0446FFF736FF2046BDE81B
:104CE000F08100BF70DE00007022001074220010FE
:104CF000A42300107822001038B5274B1A68274BE0
:104D000012B101221A6038BD1A60FEF785FA244AF2
:104D1000244C1568A84204D921680B6D5B1B034421
:104D20000B65236810601B6B1A68B2F1A53F0BD1AD
:104D30005A68B2F1A53F07D19A68B2F1A53F03D1F5
:104D4000DB68B3F1A53F04D0206821683431FEF759
:104D500019FA154B1B68B3FA83F3DBB2C3F11F03D7
:104D6000142212495A4388188D582DB9104940F61B
:104D7000B730FEF725FAFEE7456808326D684560F2
:104D80000A44954204BF6A684260142202FB03137E
:104D90005B68DB682360B6E74C230010BC2300107F
:104DA000402300106C2200105423001078220010C1
:104DB000D6DD000070B504462A4EFEF783FD04B927
:104DC0003468251D2846FEF7F0FE60B9E06A264BE0
:104DD000142141435B5833B9244901220B688240B6
:104DE00023EA02030B60A36A1BB104F11800FEF76B
:104DF000DCFE29461E481F4DFEF7B4FE94F85830DD
:104E0000012B04BF002384F85830FEF77DFD2A688B
:104E10002AB1FEF757FDFFF727FCFEF775FD336853
:104E2000A34212D12B688BB1134B1B682BB11349D2
:104E300040F2E460FEF7C4F9FEE7114B4FF08052F8
:104E40001A60BFF34F8FBFF36F8F70BD084A1168B0
:104E50000C4A1268914201D13360F6E7BDE8704018
:104E6000FFF74ABF6C220010782200105423001074
:104E7000A4230010A02300104C2300107DDD0000AF
:104E800004ED00E04423001010B50C4628B9084991
:104E900040F6CE30FEF794F9FEE7064B196818315C
:104EA000FEF76CFE20460121BDE81040FFF756BC1E
:104EB00097DD00006C22001038B5C368DC682CB99F
:104EC000164940F62940FEF77BF9FEE704F1180584
:104ED0002846FEF76AFE124B1B68E3B9251D2846DB
:104EE000FEF763FE0F49E26A08680123934003431B
:104EF0000B600D4B1420294600FB0230FEF732FEFA
:104F00000A4BE26A1B68DB6A9A4283BF084B0120A6
:104F10001860002038BD29460648EFE7F8DE00009B
:104F20004C23001054230010782200106C22001033
:104F3000BC2300108C230010034B1B680360034B41
:104F40001B684360704700BF88230010B82300101F
:104F500070B50C46054628B9164940F69440FEF750
:104F60002FF9FEE729B9144940F69540FEF728F9D4
:104F7000FEE7FEF7A7FC114B196823685A1C10D0F6
:104F80000F482E6800686A68864201D08A420FD9AD
:104F9000881A83420AD95B1A134423602846FFF714
:104FA000CBFF0024FEF7B0FC204670BD0023236039
:104FB0000124F7E7C7DD00001DDE0000B823001064
:104FC00088230010014B01221A607047BC23001097
:104FD00070B50C461646054608B91B4A156825608B
:104FE00005F134026260EA6A22612A6BE2612A6C8E
:104FF000A260AA6C6261052B2A6DA2611AD0124AC6
:105000001268AA420AD100232373D6B1296B002368
:10501000CA5CA52A13D09B08238470BD032B23737D
:10502000F3D1FFF7F7FCAB6A0BB102232373FFF751
:105030008BFDEAE72846FFF73BFC2073E5E70133E9
:10504000E6E72684E9E700BF6C2200102DE9F84F5F
:105050000D6881460C46934615B34B685B684B6000
:1050600001F10806B34204BFCB684B604B68D3F82C
:105070000C8000254FF0240A63685B6863609E42E1
:1050800004BF736863606368DF680AFB05915B4671
:1050900001223846FFF79CFFB84505F10105EBD129
:1050A0002846BDE8F88FFFFF2DE9F04705469046FA
:1050B000FFF7B0FC1D4B1B688B4234D8DFF87C90A7
:1050C0000A2700244FF0140A2426013F06FB04504F
:1050D00001220AFB0791FFF7B9FF0444002FF4D126
:1050E000134B0222196806FB0450FFF7AFFF114B68
:1050F00004441968022206FB0450FFF7A7FF04448A
:1051000006FB045003220C49FFF7A0FF0444B8F14A
:10511000000F03D0FEF780F8C8F80000FFF714FD79
:105120002046BDE8F0870024F8E700BF44230010C4
:105130007022001074220010A423001078220010A6
:10514000054B1B6833B1054B1B68002B0CBF0220BD
:105150000020704701207047A02300104C2300104E
:105160002DE9F0410446002835D0234AC36A11686E
:10517000C96A8B42174636D28269204D002AA1BFE8
:105180003A68D26AC2F10A0282611426426906FBB9
:1051900003539A4221D100F104084046FEF705FD71
:1051A000174B48B9E06A4643AA592AB91A6801213F
:1051B000814022EA01021A603A681968D26AE26202
:1051C000012404FA02F0084318601420414600FB51
:1051D0000250FEF7C7FC204603E03B68DB6AC3626F
:1051E0000120BDE8F0811368806CDC6AA0422CBF0E
:1051F00000200120F5E700BF6C220010782200108B
:1052000054230010F8B5044608B90020F8BD1F4B20
:105210001B68834205D01E4940F6D170FDF7D0FFD0
:10522000FEE7DB6C2BB91B4940F6D270FDF7C8FFD7
:10523000FEE7C16A826C013B9142C364E5D0002B5A
:10524000E3D1051D2846FEF7B0FC134E134A50B9B2
:10525000E76A1421794373582BB913680120B840C9
:1052600023EA00031360A36CE362C3F10A01A161A6
:105270001168012404FA03F008431060142000FBB5
:1052800003602946FEF76EFC2046BFE76C22001043
:10529000CDDE0000E3DE0000782200105423001071
:1052A000F8B50446002847D0C26C2AB923494FF408
:1052B0008150FDF785FFFEE7836C994238BF1946A0
:1052C000C36A8B4238D0012A36D11D4A1268824205
:1052D00005D11C4941F23B00FDF772FFFEE78269F0
:1052E000194DC162002A4FF014064269A8BFC1F1EE
:1052F0000A0106FB0353A8BF81619A421CD1071D16
:105300003846FEF752FCE26A104C40B95643AB599E
:105310002BB923680121914023EA0103236021680E
:10532000012393400B4314202360394600FB0250B5
:10533000BDE8F840FEF716BCF8BD00BFE3DE000094
:105340006C220010A3DD000078220010542300100E
:10535000044B1A681AB11968CA6C0132CA64186819
:10536000704700BF6C22001070B5FFF753FB144D5F
:105370000A241426013C06FB04F3E818EB580BB191
:10538000FFF7CCF8002CF5D10E4B1A68126812B159
:105390001868FFF7C3F80C4B1A68126812B1186846
:1053A000FFF7BCF8094803680BB1FFF7B7F8084BE3
:1053B00000221A60FDF73AFFBDE87040FFF7C4BB5A
:1053C000782200107022001074220010A423001014
:1053D0004023001010B5FDF71FFF064B064A196861
:1053E00029B1196814680B6D1B1B03440B65106011
:1053F00010BD00BF6C2200104023001008B5FDF75F
:105400000BFF014B186008BD4023001038B5012286
:105410000221002000F0C3F801220321002000F047
:10542000BEF804220021012000F0B9F80121042275
:10543000084600F0B4F804221146012000F0AFF84D
:105440000821012000F01AF9284B4FF480729A616C
:105450000921012000F0EEF802220A21002000F0CC
:105460009EF802220B210546002000F098F8044621
:10547000284600F0A9F8204600F0A6F803210220F3
:1054800000F0FCF81A4B1B4D18701A21012000F097
:10549000F5F8194B194C18701821012000F0EEF89E
:1054A000174B12211870012000F0E8F8154B13215A
:1054B0001870012000F0BEF80F212870012000F0C4
:1054C000B9F81E212070002000F0B4F80E4B1D2109
:1054D0001870002000F0AEF80C4B1870287800F01F
:1054E00083F82078BDE8384000F07EB8208009209D
:1054F000C0230010C4230010C1230010C5230010D6
:10550000C2230010C3230010C6230010C7230010BD
:10551000024B4FF48072DA61704700BF208009208F
:10552000024B4FF480729A61704700BF20800920BF
:10553000034B586980F40070C0F34020704700BFEF
:1055400020800920014B1878704700BFC02300104D
:10555000014B1878704700BFC1230010014B187829
:10556000704700BFC2230010014B1878704700BF7E
:10557000C3230010C0F3C40300F007029B0003EB39
:10558000C21303F1804303F5303301F007011A68B9
:1055900022F007021A601A6811431960704738B583
:1055A00000F007054FF0000001F01F0465F3020052
:1055B00064F3C7001146FFF7DDFF4FF0000065F30D
:1055C000020064F3C70038BDC0F3C40300F0070253
:1055D0009B0003EBC21303F1804303F530331A68D9
:1055E00042F480621A607047C0F3C40300F00702FF
:1055F0009B0003EBC21303F1804303F530331A68B9
:1056000022F018021A601A6842F008021A60704705
:1056100000F00702064B53F82210C0F3C4000B68D9
:10562000012202FA00F023EA00030B60704700BF7A
:105630001CDF000038B500F007054FF0000001F056
:105640001F0465F3020064F3C700FFF7E1FF4FF0AA
:10565000000065F3020064F3C70038BD00F00702E4
:10566000054B53F82220C0F3C40311680120984071
:1056700008431060704700BF1CDF000038B500F021
:1056800007054FF0000001F01F0465F3020064F30A
:10569000C700FFF7E3FF4FF0000065F3020064F37B
:1056A000C70038BD00F00702064B53F82230C0F3A4
:1056B000C4005A69012303FA00F0104214BF1846CF
:1056C000002070471CDF000000F00702044BC0F30D
:1056D000C40053F82220012303FA00F090617047C0
:1056E0001CDF000000F00702044BC0F3C40053F8B5
:1056F0002220012303FA00F0D06170471CDF000074
:1057000008B50146FFF7CEFF20B10846BDE80840C6
:10571000FFF7E8BF0846BDE80840FFF7D5BFFFFF29
:105720002DE9F8430F4F0C2444433E198846357940
:105730002846914600F038FA3C5900233F22636026
:105740004946A360284622606361B268A361E361B1
:105750002362636200F04CFA0123C4F80C8063609A
:10576000BDE8F88334DF00000C235843064B1B5878
:1057700030B501205C6901EB4105A8402043586128
:10578000183343F8212030BD34DF00000C23584388
:10579000034B1A58012303FA01F11160704700BF4F
:1057A00034DF00000C235843014B1B5898687047A6
:1057B00034DF00000C235843014B1B58996070479D
:1057C00034DF00002DE9F041044617461E468846A6
:1057D000FFF7B6FC00210546A068FEF755FD002343
:1057E0002374069BA361079BE361236884F81180FF
:1057F0002022022DA77466611A600BD140F6B831E1
:10580000A068FEF741FD18B1207CB0FA80F0400995
:10581000BDE8F0810021A068FEF736FD0028F9D030
:10582000F2E7FFFF03685A68402A13B500F09D8035
:1058300019D8182A60D00FD8082A50D0102A55D06D
:105840005A68027420229A6110221A6008229A6112
:105850001A68D206FCD45BE0282A6DD0382AEFD132
:105860005B68037454E0602A22D013D8502A00F0F9
:105870008580582AE4D14269996811700022C2617A
:1058800020229A6110221A6008229A611A68D106B1
:10589000FCD43DE0A02A18D0A82A1AD0802ACFD163
:1058A0003D493E4A087858B998681070012203E0D3
:1058B0003A4900220A7038490A7004221A6019E035
:1058C0001278374998688854F7E7334A00211170F5
:1058D000F3E7324A324912788A5C9A60EDE7417CFC
:1058E00001F0FE0199609A6102B010BD427C42F065
:1058F00001029A600822F6E7C46920219961082212
:10590000C4B99961102119609A611A68D106FCD452
:10591000002301A980680193FEF7C6FB019B002BC1
:10592000E2D0204B4FF080521A60BFF34F8FBFF38D
:105930006F8FD9E7817CD5E7427CD20701D5202241
:10594000BCE7C2694AB920229A6110221A60082273
:105950009A611A68D406FCD4DAE78169013A11F831
:10596000014B9C608161C261C4E720229A61C269D7
:10597000012A4FF00402A1D89A61BBE742699968F5
:105980001170426901324261C269013A012AC26161
:105990004FF0040292D1EFE7C9230010C823001092
:1059A000CA23001004ED00E00148FFF73BBF00BF31
:1059B000AC0000100148FFF735BF00BF8C0000109D
:1059C0000148FFF72FBF00BF6C0000102DE9F04326
:1059D000264B06461546894693E8070085B004AB7A
:1059E00003E9070040F60A33ADF800300C238DF8C8
:1059F00002301F4A7301D718D45804AB3344032232
:105A00000021012013F8108CFEF7F4F9B860012092
:105A1000FEF7D9FAF860404600F0C6F86C23A3619F
:105A2000144A154B914588BF99462823B5FBF9F2D6
:105A30005208C8215343B3FBF1F323613C235A437B
:105A40000023B2FBF1F26261A36263622362E3604E
:105A50004023236004AB03EB86067A6856F80C1CDF
:105A6000404605B0BDE8F04300F0C2B87CDF00005E
:105A70006C00001040420F00A08601002DE9F341A8
:105A80000F4690461D4623B90025284602B0BDE8C2
:105A9000F0810E4C04EB40144FF0FF31E068FEF74C
:105AA000F3FB0028F0D00026089B019342462B46CA
:105AB00047F0010100962046FFF784FE3346054675
:105AC00032463146E068FEF7BBF9DEE76C000010B5
:105AD0001FB500238DF80F30012300930DF10F0344
