:1000000000000110E500000075010000590100002A
:100010007501000075010000750100007501000008
:10002000750100007501000075010000591C0000F9
:1000300075010000750100005D1C0000611C0000DE
:10004000154000001540000015400000154000005C
:10005000154000001540000015400000154000004C
:10006000154000001540000015400000154000003C
:10007000154000001540000015400000154000002C
:10008000154000001540000015400000154000001C
:10009000154000001540000015400000154000000C
:1000A00015400000154000001540000015400000FC
:1000B00015400000154000001540000015400000EC
:1000C00015400000154000001540000015400000DC
:1000D00015400000154000001540000015400000CC
:1000E0001540000008B500F057F900F073F900F072
:1000F0007BF900F09BF800F095F801F0EFFA01F0C1
:100100001FFA00F0BFF840B141F28734002501F03A
:1001100011FB8D4208BF8442F9D200F082F918B970
:100120000849094805F084FC0649084805F080FCA8
:1001300004F0E8F9064B07481B68D96804F0FCFB9B
:10014000FEE700BF60A700006CA7000099A70000B1
:10015000A0010010B1A700001EF0040F0CBFEFF3C8
:100160000880EFF309808169004A1047D10100003F
:100170007047FFFF38B50F4C0F4B10481D782368B0
:10018000D96804F0D9FB23680D49D8682A4604F0E1
:100190005BFB0F2D236807D80A4A0B4952F825202C
:1001A000D86804F051FBFEE7D968084804F0C4FBA6
:1001B000F9E700BFA001001004ED00E0ECA700008B
:1001C00006A80000F8A8000040A800005EA80000F3
:1001D00010B5044600F04AF8236883606368C36082
:1001E000A3680361E3684361236943626369013B78
:1001F000C361A3698361E3690362BFF34F8F05495C
:10020000054BCA6802F4E0621343CB60BFF34F8F23
:1002100000BFFDE700ED00E00400FA05004870476C
:1002200000D8B8050048704700D8B8050E4B072223
:10023000C3F88420AA210122C3F88020C3F88C10BF
:100240005521C3F88C10C3F8A821D3F88820520593
:10025000FBD51A6822F4704242F480421A6040F2E0
:100260000112C3F80421704700C00F400248034A3E
:10027000034BC0E90023704700000020EFBEADDE55
:100280001041522138B5224C224B22689A423DD16E
:100290006268214B9A4239D1204D21482B68D96898
:1002A00004F04AFB2B68A2691E49D86804F0CCFA16
:1002B0002B68E2691C49D86804F0C6FA2B68226AE8
:1002C0001A49D86804F0C0FA2B68A2681849D8689F
:1002D00004F0BAFA2B68E2681649D86804F0B4FA58
:1002E0002B6822691449D86804F0AEFA2B68626959
:1002F0001249D86804F0A8FA2B681148D96804F0AC
:100300001BFB01200023C4E9003338BD0020F9E7BE
:1003100000000020EFBEADDE10415221A001001010
:1003200038A900008BA900009AA90000A9A9000023
:10033000B8A90000C7A90000D6A90000E5A90000DF
:10034000F4A900000E4A136810B50E4C1918A1420A
:10035000116002D30C4CA1420BD313600B4A0C4921
:1003600013681844884208D30A49884205D21060AD
:1003700001E0002BF2D0184610BD0023FBE700BFC0
:100380000000001028000020008000200400001061
:100390003C14001000000110094A0A4B0A498B4224
:1003A00005D30A4B0A4A0021934205D3704712F83D
:1003B000010B03F8010BF2E703F8011BF4E700BFA0
:1003C00084BD0000000000107403001078030010CA
:1003D0003C140010034AD2F8883043F47003C2F88A
:1003E0008830704700ED00E0044800232021C21847
:1003F0000133292B82F80013F9D1704700E100E0A6
:1004000008B52A2219233821022003F0F5FD0D2218
:100410003821022003F0ACFDA0F12A0358425841D4
:1004200008BDFFF7EDBF42884378007843EA022316
:1004300040EA0320704710B5024410F8013B11F860
:10044000014B9042A3EB040301D0002BF5D01846DA
:1004500010BD02684AB1134613F8011B1F290BD9BE
:100460003A29F9D1911C8B4202D04FF0FF307047EE
:100470001278302AF9D103600020704770B500F17E
:100480003806426B044601233146407800F05AFAA0
:10049000054688B9616BA36A226AE070CB1A934261
:1004A00008D2A378022B05D10A4401233146607893
:1004B00000F048FA284670BD0125FBE738B5436BCC
:1004C0008B4204460D4619D0C3788BB901232A46C6
:1004D00004F13801607800F021FA002818BF4FF0CD
:1004E000FF35034665630CBF03460123184638BD3C
:1004F000FFF7C4FF03460028F8D1E7E70023F5E73C
:1005000038B50023C3704FF0FF3343630546FFF750
:10051000D5FF044618BB95F8372295F8363243EAE2
:1005200002234AF6552293421BD195F83830EB2B23
:1005300003D01833DBB2012B15D803220B4905F188
:100540006E00FFF778FF40B10522094905F18A00E6
:10055000FFF771FF002818BF0224204638BD04248D
:10056000FBE70324F9E70224F7E700BFC8AA00006D
:10057000CCAA00002DE9F043002385B00B600F46A4
:100580001546FFF766FF061EC0F23981A44B53F8EB
:100590002640002C00F03581206900F09EF90028EB
:1005A00000F031813C60237805F0FE056BB1607886
:1005B00000F0AFF9C10708D41DB110F0040500D058
:1005C0000A25284605B0BDE8F0830023F0B2237069
:1005D000607000F090F9C20700F117810DB1430778
:1005E000EED400212046FFF78BFF022840F0EE807A
:1005F0006F4604F5FF7104F23E263D4611F8040CE7
:1006000010B10846FFF70FFF10318E4245F8040B7A
:10061000F4D1002557F8046B002E00F0CE8031464F
:100620002046FFF76DFF012800F2C88094F84420AF
:1006300094F8433043EA0223B3F5007F40F0CA80C8
:1006400094F84F3094F84E5055EA032504D104F144
:100650005C00FFF7E8FE054694F8481025624B1E43
:10066000012BA17000F2B68094F845901FFA89F32F
:100670006381002B00F0AE8009F1FF3313EA090F0C
:1006800040F0A88094F84A3094F8497047EA03276C
:100690003FB21FFA87F818F00F0FA4F8088040F057
:1006A000998094F84C3094F84B0050EA032003D121
:1006B00004F15800FFF7B7FE94F8472094F846304D
:1006C00053EA022300F0868005FB01FC03EB1812BD
:1006D000624490427ED3801A4845B0FBF9F179D349
:1006E0005048814276D84FF6F570814240F28F80B3
:1006F0004FF00309023133443244B9F1030FE16191
:100700006662A362226369D194F8632094F8623030
:1007100043EA02231F433FB2002F5BD104F1640080
:10072000FFF781FEE062890001F2FF11B5EB512F66
:1007300050D34FF0FF33C4E90533B9F1030F4FF045
:10074000800323712FD194F8692094F8683043EA2C
:100750000223012B27D1711C2046FFF7AFFE10BBEF
:1007600094F8372294F83632207143EA02234AF68D
:100770005522934217D104F13800FFF754FE2A4B5B
:10078000984210D104F50770FFF74DFE274B9842B1
:1007900009D104F50870FFF746FEA06104F5097061
:1007A000FFF741FE6061224A84F80090138801330C
:1007B0009BB21380E380002503E703200135042D5D
:1007C0007FF428AF042805D10125FAE60428FBD0E0
:1007D000012801D90D25F4E6002627E7B8F1000F1E
:1007E000F8D06344B9F1020FE3624FEA41031BBF43
:1007F0005B1801F00101194601EB530194E70B2549
:10080000DFE60C25DDE60F25DBE60325D9E640F61D
:10081000F57949458CBF4FF002094FF0010969E7AE
:1008200078030010F5FFFF0F52526141727241616F
:100830007C03001040B1A1F10B03012B04D90F2957
:1008400002D0006900F052B87047FFFFF0B585B0E4
:10085000CDE9001003A814460391FFF7FAFD051E29
:1008600028DB154F57F825604EB1306900F030F89D
:1008700018B90224204605B0F0BD00233370019959
:1008800079B9019B47F82530002CF3D001A900224B
:100890006846FFF76FFE044601460198FFF7CAFF5E
:1008A000E8E7002301F8103BE8B200F007F8002861
:1008B000E7D1DEE70B24DDE77803001010B5012057
:1008C0000C4601F0D0FD2060003018BF012010BDA3
:1008D00008B502F037F8012008BD08B540F6B83178
:1008E00001F022FF431E5842584108BD00231A461A
:1008F000194601F0F5BC10B5044600F0B1FE34B95C
:1009000000F0FAF8044600F0C5FE204610BD0424AD
:10091000F9E708B900F08EB904207047F8B507462A
:100920000C4615461E4600F09BFE4FB92046F2B21B
:10093000294600F087F9044600F0ACFE2046F8BDD9
:100940000424F9E7F8B507460C4615461E4600F0A4
:1009500087FE4FB92046F2B2294600F0B9F90446A5
:1009600000F098FE2046F8BD0424F9E738B500F001
:10097000E1FE00F5FA75FF2003F026FCFF2003F0EE
:1009800023FCFF28044603D000F0D4FE8542F5D8AE
:10099000204638BD08B503F00BF8FFF7E7FF03F07A
:1009A0000FF8034A137843F00103137008BD00BF2A
:1009B0000800001038B505460C46FFF7D7FFFF28A2
:1009C00021D1204603F000FCFD2C1ED0AC1C05F20A
:1009D000022514F8020C03F0F7FB023414F8030CA0
:1009E00003F0F2FBAC42F4D1FF2003F0EDFBFF205B
:1009F00003F0EAFBFF2003F0E7FB00F01F00431FBA
:100A00005842584138BD0020FCE70120FAE737B5CD
:100A1000020604460D4607D500217720FFF7F7FFB1
:100A2000012831D804F07F0402F0CAFF02F0C0FFB1
:100A3000FFF79CFFFF282BD1402C27D0482C0CBF60
:100A4000872301232A0E8DF801202A0C8DF802201D
:100A500006212A0A68468DF800408DF803208DF89B
:100A600004508DF8053003F0B9FB4C2C02D1FF2067
:100A700003F0AAFB0A24FF2003F0A6FB030603D51C
:100A8000013C14F0FF04F6D103B030BD9523D9E743
:100A9000FF20F9E770B5054600F04CFE00F1640652
:100AA000FF2003F091FB044600F044FE864201D390
:100AB000FF2CF5D0FE2C0CD14FF40071284603F02A
:100AC00090FBFF2003F080FBFF2003F07DFB012063
:100AD00070BD0020FCE7FFFF38B5064D2C78E4B26E
:100AE00002F076FF18B104F0FD042C7038BD44F01C
:100AF0000304FAE7080000102DE9F341FFF7ECFFCB
:100B00004A4B1A7812F0020F1E4604D01878C0B271
:100B100002B0BDE8F081C82003F01EFB0A25FF20CB
:100B2000013D03F051FB15F0FF05F8D102F040FF45
:100B300029464020FFF76BFF0128044671D100F0E1
:100B4000F9FD4FF4D57100F57A774820FFF75FFF84
:100B5000012848D101ADA8460424FF2003F034FB4E
:100B6000013C14F0FF0408F8010BF6D19DF80630A3
:100B7000012B56D19DF80730AA2B52D100F0DAFD97
:100B8000874206D94FF08041E920FFF740FF002857
:100B9000F4D100F0CFFD874243D900217A20FFF73E
:100BA00036FF00283DD10424FF2003F00DFB013C5B
:100BB00014F0FF0405F8010BF6D19DF8043013F092
:100BC000400F14BF0C240424194B1C7002F0F8FED3
:100BD0004CB3337845F6C05003F0FE03337003F096
:100BE000BBFA307893E72946E920FFF710FF022887
:100BF00036BFE9254125022400F09CFD874205D936
:100C000000212846FFF703FF0028F5D100F092FDF0
:100C1000874206D84FF400715020FFF7F8FE0028F5
:100C2000D2D00024D0E7FFF7B5FEDAE708000010C5
:100C30007E03001008B5FFF74FFF014B187808BD81
:100C40000800001070B5144605460E46FFF744FF35
:100C5000002C35D01C4B1B78DA0733D402F0A8FEE9
:100C60001A4B1B781B0758BF7602012C314611D155
:100C70005120FFF7CCFE38B94FF400712846FFF73A
:100C800009FFB0FA80F4640902F09AFE201C18BF34
:100C9000012070BD5220FFF7BAFE0028F4D14FF4B6
:100CA00000712846FFF7F6FE28B1013C14F0FF045E
:100CB00005F50075F3D100214C20FFF7A8FEE3E70E
:100CC0000420E6E70320E4E7080000107E0300109C
:100CD00070B5144605460E46FFF7FEFE002C41D0C7
:100CE000234B1A78D0073FD41B7859073ED402F023
:100CF0005FFE204B1B781A0758BF7602012C11D1DA
:100D000031465820FFF783FE50BBFE212846FFF7EF
:100D100051FEB0FA80F4640902F052FE201C18BFA4
:100D2000012070BD13F0060F03D02146D720FFF736
:100D30006EFE31465920FFF76AFE0028ECD1FC21F7
:100D40002846FFF737FE28B1013C14F0FF0405F5F3
:100D50000075F4D1FD210020FFF72CFE0028DBD127
:100D60000124D9E70420DCE70320DAE70220D8E7F2
:100D7000080000107E03001008B5064605F01BF8B9
:100D800000240546A54200DCFEE7315D002003F0AB
:100D900013FB0134F6E7FFFF02280CD9074B1B6851
:100DA0005A68824207D09A68824204D0DB681B1AD4
:100DB0005842584170470120704700BFA001001001
:100DC00008B50148FFF7D8FFD2AA000000207047FD
:100DD00000207047F8B504460E461546FFF7DCFFC5
:100DE00048B3164B1B68DB68A34210D0A31E5C42BD
:100DF0005C4102F0F5FB0746002003F09BFA022F4E
:100E000017D1B0B1ACB9A54203DC2846F8BD012426
:100E1000EFE7315D4FF0FF32002003F02FFB01348C
:100E2000F1E7315D002003F0C7FA0134A542F8DC98
:100E3000EBE70024FAE70248FFF79EFFA00100104D
:100E40002AAB000008B5FFF7A7FF18B1002003F098
:100E5000EBFA08BD0148FFF78FFF00BFF8AA0000BA
:100E60002DE9F84F06461446884610461B49DFF820
:100E70007C90DFF87CA0DFF87CB000F03EFDB3682A
:100E800021464046984735680DB9BDE8F88F6F6830
:100E9000384604F090FF32288CBF514649463B4605
:100EA0002A68204600F029FD5946204600F070FED1
:100EB0000B490746204600F06BFE07B918B10949F7
:100EC000204600F084FD0849204600F080FDB3680C
:100ED000214640469847ED68D6E700BF5DAB00006D
:100EE000A4AB000087AD0000A3AB0000B9AB0000CD
:100EF000A6AB0000C5AB000030B504294FF00005DB
:100F000038BF04210560C0E90112C36030BD11B1D2
:100F10000368CB60016070472DE9F0411446054637
:100F20000F461046424900F077FE4249204600F045
:100F30009FFD002833D03F49204600F070FD28B1C6
:100F4000224639462846FFF78BFF68E020212046DD
:100F500000F02CFEDFF8F0802E680EB92E6810E04D
:100F600042463168204600F09AFD002838D1F668E4
:100F7000F3E76A683168204600F066FD00282FD14B
:100F8000F668002EF5D131462B4A204600F0F5FCDC
:100F9000AB68214638469847AB6825493DE02E6846
:100FA000DFF8A4800EB92E680EE042463168204674
:100FB00000F075FDB8B9F668F4E76A683168204654
:100FC00000F042FD78B9F668002EF6D131461B4A92
:100FD000204600F0D2FCAB68214638469847AFE780
:100FE000AB687168D6E72021204600F0DFFDB368CA
:100FF000AA6821463846984788B1114A0021204600
:1010000000F0BBFCAB682146384698470D49726832
:10101000204600F072FCAB68214638469847E968E4
:1010200021B1AB683846BDE8F0411847BDE8F08112
:10103000A3AB0000C7AB0000FAAB000023AC00007C
:10104000CCAB0000DDAB000038BB000010B54C1E7F
:1010500014F8010F00B910BD04F002FDF8E7FFFF1E
:1010600070B5A0B006461B4A8021684600F07AFCA5
:101070000446304622460021FFF74EFF204600F08E
:101080002BFC204600F02DFD0028F2D103F05CFC83
:10109000C5B2082D16D1204600F009FC60B101212F
:1010A000204600F064FD284604F0DAFC202004F01D
:1010B000D7FC284604F0D4FC204600F0FEFB0028B4
:1010C000DFD0D6E7284604F0CBFC2946204600F0C6
:1010D0009AFCF1E7C7AB000030B589B004AD2846F3
:1010E000164B174A174C0421FFF706FF95E80F002F
:1010F00084E80F0020461449FFF709FF20461349F2
:10110000FFF705FF20461249FFF701FF204611496E
:10111000FFF7FDFE20461049FFF7F9FE0F4B029343
:101120000F4B0193032300934FF4007223460D49A4
:101130000D4801F0A9FD09B030BD00BF54AC00005E
:101140004D100000800300104C0000103C00001007
:101150001C0000100C0000102C000010900B001060
:1011600090030010A7AC0000611000002DE9F043CF
:10117000E7B00DF198084FF4807281460E46404664
:10118000002103F02FFC802106A800F06DFB05AFC5
:1011900001233B6005460024009704AB03AA2049C5
:1011A0004846CDE9034400F0B5FB012831D93B683E
:1011B00000939DF810209DF80C104346022002F089
:1011C000ADFE8146E8B1039A1649DFF864902846DF
:1011D00000F093FB29462046B0473B68A34202D863
:1011E00067B0BDE8F083049A18F8043000932244F5
:1011F0004946284600F081FB29460020B0470134CB
:10120000EBE70949284600F096FB29464846B047D7
:10121000E6E70649284600F08EFB29462046F6E719
:1012200034AE000041AE000072AE00009FAE000080
:101230005BAE00002DE9F043E7B000240DF1980803
:101240004FF4807281460F4640462146CDE9034463
:1012500003F0C8FB802106A800F006FB04AB06469D
:1012600003AA2949484600F055FB022844D1202111
:10127000484600F09BFC2021484600F097FC05946E
:1012800005A9484600F0A0FC0546D0B900944346A5
:101290009DF810209DF80C10022002F079FE814686
:1012A00010B3039B1949DFF870902246304600F0D6
:1012B00024FB31462846B847AC4207D167B0BDE8A9
:1012C000F083059B08F804300134D9E7049A18F834
:1012D000053000932A444946304600F00EFB314663
:1012E0000020B8470135E7E70949304600F023FB05
:1012F00031464846B847E1E70649304600F01BFB57
:1013000031462046F6E700BFDFAE0000E9AE000040
:1013100020AF00004EAF000009AF0000F8B50D4649
:1013200028460E49164600F0A3FB0D490446284600
:1013300000F09EFB20210746284600F037FC2CB128
:1013400031462846FFF712FF0020F8BD27B131468D
:101350002846FFF76FFFF7E70120F6E729AE000008
:101360002EAE000038B5032014460D4600F0EBF910
:1013700005490020A04729460020A0470349002036
:10138000A047002038BD00BF67B00000A3AB00003D
:101390000123024A1A600020704700BFEFBEADDE95
:1013A0002DE9F04F89B0084604AF0D46914600F094
:1013B00091FA041E04DD02F027FA204601F08AFEAD
:1013C000DAB00024FC6000F03BFA0DF1100B7860FD
:1013D00007F10C020A21584602F0B6F8224A38609A
:1013E0002249284600F089FA29462046C847A046E7
:1013F0005E464FF0000A20E0736943451AD1B26996
:10140000FB68144423B16421B3FBF1F3B2FBF3F3A3
:10141000317BCDE90232338C9B00CDE90083144B44
:10142000726853F821301349284600F066FA2946BD
:101430000020C8470AF1010A24363B685345DBD136
:1014400008F10108B8F10A0FD2D17B680A491A1BCA
:10145000284600F052FA29460020C84700201437D9
:10146000BD46BDE8F08F00BF09B000000EB000001F
:101470009CB0000039B0000056B0000038B50C46F2
:1014800020461649154600F0F3FAA0B1144920464B
:1014900000F054FB204601F041FE40B90021114A02
:1014A000204600F06AFA21460020A84701E001F03A
:1014B000D1FE002038BD0C49204600F0D9FA58B1C1
:1014C0000A49204600F03AFB204601F027FE00289A
:1014D000E4D001F073FCECE70549E6E7A0AF0000BB
:1014E000A8AF0000B1AF0000D2AF0000D9AF00003C
:1014F000E1AF0000F8B504460D4600F005F9061905
:1015000041EB050702F06CF802280CD100234FF4E0
:101510007A72AB4208BFA24205D22046294603F0A8
:101520000DF801F0D7FD00F0EFF8B94208BFB04266
:10153000F9D3F8BD4FF47A73A0FB0301FFF7DABFCC
:1015400030B585B002F0B2F902F04CFA8DF80C001B
:1015500002F04EFA8DF80D0002F050FA8DF80E00F0
:1015600002F052FA00248DF80F0004AA04F00303DD
:101570001344013413F8040C02F012FB3220FFF77D
:10158000D9FF202CF1D1284B1868002319460222DC
:10159000406804F0FFFAFEF745FE002501464FF4CF
:1015A000E132002002F082FE0095204B204A01210A
:1015B000204600F025FE1F4B009504461E4A0121DF
:1015C000802000F01DFE22460146284602F0BCFEA7
:1015D00045F6C05002F0D6FD012218491848FFF721
:1015E00035F9184A184B1949A84208BF1346184A3A
:1015F0001848194D04F01CFAFEF714FE174902466C
:10160000022002F033FC0224E1B2022002F0E8FCE6
:1016100018B12146284604F00BFA0234B4F5807F55
:10162000F2D105B030BD00BFA00100100C0C0010BD
:10163000EC0B0010140F0010940E0010A5AB00006E
:101640005C0C0010C1B00000DFB0000006B100006B
:10165000B0B0000057B1000077B10000801A06005A
:1016600010B50A4C236823B90949012000F0E6FEB1
:10167000206001F0B5FF022806D120684FF0FF314D
:10168000BDE8104001F050B810BD00BF640F00105D
:10169000680F001010B501F0A3FF022808D105481B
:1016A00000231A4619460068BDE8104000F018BE35
:1016B00010BD00BF640F0010074A08B51368002171
:1016C00001330846136002F0C5FA00210846BDE860
:1016D000084002F0ABBA00BFB80F001008B5074AC7
:1016E0000749B0FBF1F10020013902F069FA00214D
:1016F000044A0846BDE8084002F086BAB916000060
:1017000040420F000087930370B5084E002002F09E
:1017100099FA05460020346802F094FA8542F5D81B
:10172000034B0021E3FB040170BD00BFB80F0010A4
:101730000087930308B5FFF7E7FF4FF47A720023A1
:1017400002F0FCFE08BD70B5054608460C4604F0E4
:1017500032FB2618B4424FF0FF320BD10D21284640
:1017600002F08CFE28464FF0FF320A21BDE870409F
:1017700002F084BE14F8011B284602F07FFEE9E760
:1017800070B5054608460C4604F015FB2618B44211
:1017900005D128460A21BDE8704002F00DBE14F8BC
:1017A000011B284602F008FEF1E7FFFF0C4600206F
:1017B000044908B5FFF7E4FF21460020FFF7E0FFEA
:1017C000FEE700BFD0B2000008B502490020FFF7D5
:1017D000D7FFFEE796B20000024B0022C3F8C020FC
:1017E00030BF704700C00F4008B50C4600200A49C2
:1017F000FFF7C6FF09490020FFF7C2FF0849002094
:10180000FFF7BEFF07490020FFF7BAFF214600207F
:10181000FFF7B6FFFEE700BF9EB10000F0B1000089
:1018200033B2000067B20000034B0360034B0B6050
:1018300064231360704700BF58110010C80F0010D8
:1018400008B5FFF761FF024B1B68C01A08BD00BF57
:10185000C00F001008B5FFF757FF024BC3E90001A6
:1018600008BD00BFC00F001038B50D46044658B182
:1018700003290BD90A46002103F0B4F823462A0AAB
:1018800003F8022B65701C46204638BD0024FBE798
:1018900010F8023C10F8010C40EA0320033880B233
:1018A000704708B5FFF7F4FF013080B208BD08B5F6
:1018B00010B104F080FA80B208BD10B50446FFF7FD
:1018C000F6FF02462046FFF7E3FF824234BF0020C6
:1018D000012010BD02F0B4BF00230370704710B5A3
:1018E0000446FFF7DEFF13460A460146204605F090
:1018F00069F920EAE07080B210BD0EB403B503AA06
:1019000052F8041B0192FFF7EAFF02B05DF804EB06
:1019100003B070470EB403B503AA52F8041B01923A
:1019200005F082F90028CCBF80B2002002B05DF83B
:1019300004EB03B0704738B505460C46084671B154
:1019400004F039FA01462846FFF7A2FF89B2814226
:10195000024605D82146284604F06AFA012038BD1F
:101960000020FCE738B51546FFF77EFF044610B1AE
:101970002946FFF7E0FF204638BD2DE9F041054636
:101980000F4614460AB3FFF792FFB84206461CD32F
:10199000204604F010FA32188046284692B2FFF72B
:1019A00077FF824211D8C7F101023D44324492B21E
:1019B000294605EB080002F0FBFF42462146284677
:1019C00004F036FA0120BDE8F0810020FBE770B595
:1019D00006460C46A9B1FFF76AFF0546204604F00B
:1019E000EAF982B2A918304689B2FFF751FF88425E
:1019F00007D3013292B22146701902F0CBFF0120C9
:101A000070BD0020FCE707B500238DF8041001A984
:101A10008DF80530FFF7DBFF03B05DF804FB08B578
:101A200029B104F09FF9B0FA80F0400908BD0846DA
:101A3000FCE710B5044621B104F00DFA08B1001B13
:101A400010BD4FF0FF30FBE770B5064615460C465B
:101A500061B1FFF72CFFA84208D32A462146304641
:101A600004F0D4F9B0FA80F0400970BD0020FCE722
:101A700070B505460C4681B1FFF719FF06462046B2
:101A800004F099F98642024607D32146284604F01D
:101A90009BF9B0FA80F0400970BD0020FCE72DE909
:101AA000F041074614460D46C9B1C2B1FFF7FFFE2B
:101AB0008046284604F07FF9804506460FD302464B
:101AC0002946384604F0A2F948B9B85D2378834224
:101AD0001ABFB0FA80F040090120BDE8F081002073
:101AE000FBE710B50446FFF7E2FE40B1013880B2D3
:101AF000205C0D2804D0A0F10A035842584110BDC3
:101B00000120FCE770B50C4605461646FFF7CFFEF0
:101B1000A04211D9011BB142C4F101030A46184485
:101B2000A8BF3246801A14FA82F1294482B22819D9
:101B300002F03EFF012070BD0020FCE770B50546B5
:101B40000E4671B1FFF775FF431C044609D03046BD
:101B500004F031F9A1B282B22846BDE87040FFF727
:101B6000D1BF002070BD0A460021FFF7CBBF38B5BA
:101B70000C460546FFF79BFEA04224BF001B81B226
:101B80002246284638BF0021BDE83840FFF7BABFDB
:101B900010B5044604F05FF9031E1FBF1B1B9BB268
:101BA000002201200CBF0020E25410BD10B50446F5
:101BB00004F0F4F838B1011B0131204689B2BDE8C8
:101BC0001040FFF7D0BF10BD70B50646054611485E
:101BD0000C462B4613F8011BC9B10A5C520714D5F9
:101BE00024B1284602F02CFE20600124094A29462F
:101BF00015F8013B13B19B5C5B07F8D4891B89B2D4
:101C00003046FFF7B0FF204670BD1D46E1E70C46A9
:101C1000ECE700BF2DBA0000F8B506460C46C9B186
:101C2000FFF745FE0546204604F0C5F86B1E334419
:101C30002044013E0021B34202D02246824201D11B
:101C4000012008E012F8015B1F78AF42F6D103F8DB
:101C50000119F0E70846F8BD00F072B800F0B8B816
:101C600000F0E8B810B5044601F024F9204602F06F
:101C700081FE044601F0B8F90CB9FFF7A5FD204636
:101C800010BD10B5044640B101F014F9204602F031
:101C900079FEBDE8104001F0A7B910BD0848006802
:101CA000006880F308884FF0000080F3148862B663
:101CB00061B6BFF34F8FBFF36F8F00DF00BF00002F
:101CC00008ED00E0DFF80C00016841F470010160EC
:101CD0007047000088ED00E007B5002301930B4B2F
:101CE0001B68013304D00A49EF20FFF77DFDFEE7B2
:101CF0004FF0180383F31188BFF36F8FBFF34F8F3B
:101D0000019B002BFCD003B05DF804FBBC1100105C
:101D1000EDB200004FF0807340F8043C074B40F8F0
:101D20000C3C21F001016FF0020340F8081C40F860
:101D3000202C40F8243C4438704700BFD91C0000D8
:101D4000074B19680868B0E8F04F80F30988BFF3C3
:101D50006F8F4FF0000080F311887047AFF3008061
:101D6000C011001008B54FF0180383F31188BFF3BA
:101D70006F8FBFF34F8F094A13680133012B136034
:101D80000AD1074B1B6813F0FF0F05D0054940F23D
:101D9000AB10FFF729FDFEE708BD00BFBC11001026
:101DA00004ED00E007B30000074A08B513682BB93B
:101DB00006494FF4D970FFF717FDFEE7013B1360AA
:101DC0000BB983F3118808BDBC1100103CB30000AF
:101DD000EFF30980BFF36F8F154B1A681EF0100FD9
:101DE00008BF20ED108A20E9F04F10602DE90900AE
:101DF0004FF0180080F31188BFF34F8FBFF36F8F40
:101E000001F0CAF94FF0000080F3118809BC19688D
:101E10000868B0E8F04F1EF0100F08BFB0EC108A51
:101E200080F30988BFF36F8F704700BFAFF3008066
:101E3000C011001008B54FF0180383F31188BFF3E9
:101E40006F8FBFF34F8F01F03DF818B1034B4FF088
:101E500080521A60002383F3118808BD04ED00E06E
:101E600010B5084A084C002323601360FEF7D6F92A
:101E70004FF47A73B0FBF3F0044B0138186007237A
:101E8000236010BD18E000E010E000E014E000E086
:101E9000334B344A13B51968914205D132494FF496
:101EA0009A70FFF7A1FCFEE71A68304B9A4205D101
:101EB0002F4940F23510FFF797FCFEE72D4B1A78BB
:101EC000D2B20192FF221A701B782B4ADBB28DF836
:101ED00003309DF8033003F018031370274A0723DB
:101EE000136000219DF80300000603F1FF3409D4BC
:101EF00011B1022B13600ED0214940F25D10FFF7A3
:101F000073FCFEE79DF803305B00DBB28DF8033015
:101F100001212346E6E74FF400731360019B154A45
:101F2000DBB21370174B1A6842F478021A601A6811
:101F300042F078421A60FFF793FF134B00241C60B5
:101F4000FFF7C0FE114A136843F040431360FFF7E8
:101F5000A5FE01F021F9FFF7BFFE204602B010BD3B
:101F600000ED00E071C20F41BAB3000070C20F4132
:101F7000DDB3000000E400E0B4110010B81100105F
:101F800000B4000020ED00E0BC11001034EF00E0D0
:101F900008B5EFF305830F2B0BD90D4A9B5C0D4A57
:101FA00012789A4205D90C4940F2FE20FFF71CFC3A
:101FB000FEE70A4B0A4A1B68126803F4E063934287
:101FC00005D9084940F20E30FFF70EFCFEE708BDC8
:101FD000F0E300E0B41100104EB300000CED00E09F
:101FE000B811001078B3000000F108034FF0FF3281
:101FF0004360C0E9022303610023036070470023AC
:102000000361704743684B609A688A609A685160C0
:102010009960036808610133036070470A68531CC4
:1020200030B50AD103695A684A6091608B60596083
:10203000036808610133036030BD00F108035C6888
:1020400025689542EFD82346F9E7D0E901120369E4
:102050008A6051605968814208BF5A60002202615B
:102060001A68013A1A601868704710B50446FFF7FD
:1020700079FEA46BFFF798FEB4FA84F0400910BD16
:10208000F8B51546026C866B044652B9076847BB23
:10209000806801F007FBA76005460136A663284665
:1020A000F8BD65B9406802F075FC6368226C1344A2
:1020B000A26863609342F0D323686360EDE7C06871
:1020C00002F068FC236CE26821685B421A448A4291
:1020D000E2603EBFA2689B18E360022D01D116B1F9
:1020E000013E0025D9E73546D7E7034610B41A6C00
:1020F000084662B1D9689C681144A142D96024BFE6
:102100001968D960D9685DF8044B02F043BC5DF8EA
:10211000044B704770B50446FFF724FE94F8455011
:1021200004F124066DB2002D14DCFF2384F8453041
:10213000FFF73AFEFFF716FE94F8445004F110063C
:102140006DB2002D12DCFF2384F84430BDE87040EE
:10215000FFF72ABE636A002BE7D0304601F0FCF897
:1021600008B101F07FF9013D6DB2DCE72369002B76
:10217000E9D0304601F0F0F808B101F073F9013D03
:102180006DB2DEE738B50D46044628B91A4940F26B
:102190000310FFF729FBFEE7FFF7E4FDD4E90F305A
:1021A000226862604343D1181B1A1344A160E360A4
:1021B0000021FF23A16384F8443084F8453095B9A9
:1021C000236963B104F1100001F0C6F838B10B4B7C
:1021D0004FF080521A60BFF34F8FBFF36F8FFFF73E
:1021E000E3FD012038BD04F11000FFF7FDFE04F10E
:1021F0002400FFF7F9FEF2E706B5000004ED00E069
:1022000013B51C4628B91E494FF49D70FFF7ECFA30
:10221000FEE72BB91B494FF49F70FFF7E5FAFEE785
:1022200032B161B918494FF4A170FFF7DDFAFEE74A
:1022300029B1164940F24310FFF7D6FAFEE75023C2
:102240000193019B502B05D0114940F24B10FFF731
:10225000CBFAFEE7002908BF2246019B226001233A
:10226000C4E90F0184F8463019462046FFF78AFF7B
:102270009DF8103084F84C30204602B010BD00BFED
:1022800043B4000065B400007BB40000B3B40000A8
:10229000EBB40000F8B50D461746064628B90F49BD
:1022A0004FF4BB70FFF7A0FAFEE748435030FFF74A
:1022B000D9FC044670B1002380F8463065B100F1C6
:1022C00050032360C4E90F6501212046FFF75AFF40
:1022D00084F84C702046F8BD0346F2E743B4000092
:1022E0002DE9FF47884601921F46044628B94E490A
:1022F00040F2F120FFF778FAFEE739B9036C2BB111
:102300004A4940F2F220FFF76FFAFEE7022F08D1A8
:10231000E36B012B05D0464940F2F320FFF764FA46
:10232000FEE701F05DF9064638B9019B33B141493A
:1023300040F2F620FFF758FAFEE700264FF00009BA
:10234000DFF8F4A037E0019D1DB9FFF72DFD002057
:1023500050E016B902A801F03FF8FFF725FD00F0A4
:10236000A9FDFFF7FFFC94F84430FF2B08BF84F869
:10237000449094F84530FF2B08BF84F84590FFF750
:1023800013FD01A902A801F033F8002846D1FFF798
:10239000E9FCA26BE36B9A422FD1FFF705FD01998F
:1023A00004F1100000F0C0FF2046FFF7B3FE00F07C
:1023B0001BFE50B30126FFF7D5FCA26BE36B9A42DC
:1023C00001D3022FBFD13A4641462046FFF758FEBF
:1023D000636A1BB104F1240000F0BEFF38B1164B54
:1023E0004FF080521A60BFF34F8FBFF36F8FFFF72C
:1023F000DBFC012004B0BDE8F087FFF7D5FC2046E8
:10240000FFF788FE00F0F0FDD4E74FF08053CAF8E4
:102410000030BFF34F8FBFF36F8FCBE72046FFF73E
:1024200079FE00F0E1FD92E706B500000EB5000070
:102430005EB50000A5B5000004ED00E013B5002274
:1024400000900B4601201146FFF7DAFE044638B132
:10245000002383600360C3601A461946FFF740FFFC
:10246000204602B010BD10B5024600210120FFF742
:1024700011FF044638B1002383600360C3601A462D
:102480001946FFF72DFF204610BDFFFF2DE9F84349
:10249000894690461F46044628B9284940F2C33071
:1024A000FFF7A2F9FEE739B9036C2BB124494FF4C9
:1024B0007170FFF799F9FEE7022F08D1E36B012B4A
:1024C00005D0204940F2C530FFF78EF9FEE7FFF74F
:1024D0005FFDEFF311864FF0180383F31188BFF30C
:1024E0006F8FBFF34F8FA26BE36B9A4201D3022F22
:1024F00022D194F845503A466DB249462046FFF73E
:10250000BFFD6B1C13D1636A0BB901200BE004F112
:10251000240000F021FF0028F7D0B8F1000FF4D01C
:102520000120C8F8000086F31188BDE8F883013562
:102530006DB284F84550E8E70020F4E706B50000E6
:102540000EB500005EB5000070B50D46044628B912
:1025500023494FF48C60FFF747F9FEE7036C2BB17A
:10256000204940F26440FFF73FF9FEE703683BB9BA
:1025700083682BB11C4940F26940FFF735F9FEE74B
:10258000FFF706FDEFF311864FF0180383F3118870
:10259000BFF36F8FBFF34F8FA26BE36B93421CD9D6
:1025A00094F8453001325BB2A2635A1C10D1636AC1
:1025B0000BB9012009E004F1240000F0CDFE002851
:1025C000F7D0002DF5D00120286086F3118870BD6A
:1025D00001335BB284F84530EBE70020F5E700BF3C
:1025E00006B50000FBB5000014B600002DE9F0436D
:1025F00085B00F460192044628B947494FF4A060C0
:10260000FFF7F2F8FEE739B9036C2BB1434940F20A
:102610000450FFF7E9F8FEE700F0E2FF064638B99C
:10262000019B33B13E4940F20950FFF7DDF8FEE768
:1026300000264FF00008DFF8EC903BE0019D1DB94B
:10264000FFF7B2FB002052E016B902A800F0C4FE6A
:10265000FFF7AAFB00F02EFCFFF784FB94F8443050
:10266000FF2B08BF84F8448094F84530FF2B08BF47
:1026700084F84580FFF798FB01A902A800F0B8FE96
:1026800000283DD12046FFF7F0FC98B3019904F1F2
:10269000240000F049FE2046FFF73CFD00F0A4FCBA
:1026A00038B94FF08053C9F80030BFF34F8FBFF3F4
:1026B0006F8F0126FFF756FBA56B002DBED0394664
:1026C0002046013DFFF711FDA563236963B104F1C5
:1026D000100000F041FE38B1124B4FF080521A60EA
:1026E000BFF34F8FBFF36F8FFFF75EFB012005B085
:1026F000BDE8F0832046FFF70DFD00F075FCD8E73C
:102700002046FFF707FD00F06FFC2046FFF7ADFC09
:102710000028CED096E700BF7BB6000087B6000049
:10272000A5B5000004ED00E02DE9FF41044601914C
:1027300028B9584940F29150FFF756F8FEE7056C6A
:102740002DB1554940F29550FFF74EF8FEE700F0E5
:1027500047FF064638B9019B53B1504940F29A50A1
:10276000FFF742F8FEE72E460027DFF838814EE0FB
:102770000546F9E7019B4BB92DB1494940F2E150BB
:10278000FFF732F8FEE7FFF70FFB5EE016B902A88D
:1027900000F022FEFFF708FB00F08CFBFFF7E2FAE7
:1027A00094F84430FF2B08BF84F8447094F8453007
:1027B000FF2B08BF84F84570FFF7F6FA01A902A8BD
:1027C00000F016FE00284AD12046FFF74EFC0028F4
:1027D0003FD023683BB9FFF7C5FAA06800F010FFAF
:1027E0000546FFF7E1FA019904F1240000F09CFD91
:1027F0002046FFF78FFC00F0F7FB38B94FF080530D
:10280000C8F80030BFF34F8FBFF36F8F0126FFF77B
:10281000A9FAA36B002BADD0013BA363236813B9C6
:1028200000F0E6FFA060236963B104F1100000F03E
:1028300093FD38B11B4B4FF080521A60BFF34F8F9E
:10284000BFF36F8FFFF7B0FA0125284604B0BDE84B
:10285000F0812046FFF75EFC00F0C6FBD6E720467D
:10286000FFF758FC00F0C0FB2046FFF7FEFB0028F6
:10287000CCD0002DE9D0FFF775FA616A19B1236B4E
:102880001968C1F10A01A06800F05AFF0025FFF79E
:102890008BFADAE77BB60000FBB50000A5B50000B7
:1028A00025B7000004ED00E02DE9F8438946904685
:1028B000054628B9214940F2FB60FEF795FFFEE787
:1028C00039B9036C2BB11E4940F2FC60FEF78CFF56
:1028D000FEE7FFF75DFBEFF311874FF0180383F37B
:1028E0001188BFF36F8FBFF34F8FAC6B1CB395F89C
:1028F0004460494676B22846FFF7F7FB013C731C5B
:10290000AC6313D12B690BB901200BE005F110006A
:1029100000F022FD0028F7D0B8F1000FF4D001201C
:10292000C8F8000087F31188BDE8F883013676B255
:1029300085F84460E8E72046F4E700BF06B50000EC
:10294000DAB6000008B528B9064940F2B770FEF7BC
:102950004BFFFEE790F846301BB9BDE80840FFF793
:1029600090B908BD06B500000268F0B503461AB379
:1029700042685068586003F10802904204BFD8686A
:1029800058605868C768586840685860824204BFF9
:10299000506858605868C0684D1E00F1340400F15A
:1029A000400C14F801EB15F8016F764502D126B101
:1029B0006445F6D18742E6D10020F0BD43685B68EC
:1029C000436000F10802934204BFC3684360436858
:1029D00030B5DC6800255B689A4208BF5368D96847
:1029E0008C420D65F7D1436030BDFFFF2DE9F0410A
:1029F0000446FFF7B7F92D4B2D4D1A682D4F0132C4
:102A00001A602E68002E46D12C601B68012B1CD149
:102A1000B84640460136FFF7E7FA0A2E08F11408D7
:102A2000F7D1DFF8B880244E4046FFF7DDFA304694
:102A3000FFF7DAFA2148FFF7D7FA2148FFF7D4FA6F
:102A4000204BC3F80080204B1E60204A20491368A9
:102A5000086801331360E26A23640123934003434F
:102A600014200B6000FB0270211DFFF7CBFAFFF76B
:102A70009BF9184B1B6863B12B68DA6AE36A9A42C8
:102A800007D2154B4FF080521A60BFF34F8FBFF340
:102A90006F8FBDE8F0810F4B1B68002BD5D12B68E1
:102AA000DA6AE36A9A4298BF2C60CEE79812001067
:102AB000C0110010CC110010C0120010E012001064
:102AC000F8120010C4110010C8110010A412001058
:102AD000A8120010F412001004ED00E0AC12001077
:102AE00008B5074C074D4FF080562368012B04D9D9
:102AF0002E60BFF34F8FBFF36F8FFEF76DFEF4E7CD
:102B0000CC11001004ED00E0064A13681968064B6A
:102B100019B94FF0FF321A6070471268D268D26854
:102B20005268F8E7C4110010D812001008B528B98F
:102B3000094940F20E70FEF757FEFEE74269074B67
:102B40009A4207D1806A064B984203D0B0FA80F0CF
:102B5000400908BD0020FCE74BB70000F812001048
:102B6000E01200102DE9F047DDE909644FEA82091F
:102B70004A4607460D46206BA521984601F032FFD4
:102B8000236BA9F10409994429F007099DB36B1E31
:102B900004F134020B3513F8011F02F8011B09B1CF
:102BA000AB42F8D1002384F83F30089D092D28BF9F
:102BB00009254FF0000AE562A564201DC4F84CA069
:102BC000FFF71DFAC5F10A0504F11800FFF717FA1F
:102BD000C4F854A02461A5616462C4F850A084F8CC
:102BE00058A0424639464846FFF794F8206006B19F
:102BF0003460BDE8F08784F83450D6E7F8B51B4B55
:102C00001B4E1C680546306804300F46FFF71DFA5E
:102C1000334640B93168174EC96A3268012088408E
:102C200022EA000232606A1C07D137B119681248E3
:102C30000431BDE8F840FFF7E5B91A68641954603B
:102C400007D30E4A10681968BDE8F8400431FFF751
:102C5000E5B90B4A106819680431FFF7DFF9094B31
:102C60001A68A24288BF1C60F8BD00BF0C13001098
:102C7000C0110010A8120010F8120010C8110010A6
:102C8000C4110010D812001070B586B0DDE90B54E5
:102C90002DB9154940F24D20FEF7A6FDFEE72CB9EF
:102CA000124940F24E20FEF79FFDFEE75C26059696
:102CB000059E5C2E05D00E4940F25620FEF794FD8D
:102CC000FEE72563022584F8595004AD01950A9D5D
:102CD00002940095059EFFF745FF2046FFF786FE0C
:102CE000049806B070BD00BF2AB8000041B80000CB
:102CF00056B800002DE9F043074685B0900088469D
:102D000016469946FEF7AEFF0546E8B15C20FEF791
:102D1000A9FF0446A8B1002380F859300D9B056334
:102D200001930C9B0290009332464B464146384635
:102D3000FFF718FF2046FFF759FE012005B0BDE858
:102D4000F0832846FEF79DFF4FF0FF30F6E7FFFFC8
:102D5000F8B5044628B914494FF4AD60FEF744FDB8
:102D6000FEE7124B1B68834218D0FEF7FBFF104BA7
:102D700065691F680F4B1E68FFF716F8BD4211D03A
:102D8000B5420FD00C4B9D420AD1A36A53B994F8B7
:102D90005830012B0CBF02200320F8BD0020FCE7B7
:102DA0000120FAE70220F8E745B70000C011001043
:102DB000C4110010C8110010F812001070B50446BC
:102DC00028B91A494FF4E760FEF70EFDFEE7184DEB
:102DD0002B68834228D0FEF7C5FF2046FFF7A6FEEA
:102DE000F0B1261D3046FFF730F91249E26A086853
:102DF0000123934003430B600F4B142000FB023070
:102E00003146FFF7FFF82B68E26ADB6A9A4207D384
:102E10000A4B4FF080521A60BFF34F8FBFF36F8F92
:102E2000BDE87040FEF7C0BF70BD00BFB8B700007E
:102E3000C0110010A8120010CC11001004ED00E029
:102E400010B588B0002407AA06A905A8CDE9054455
:102E5000FEF7EAFC059B0293069B079A0F49104870
:102E6000CDE900432346FFF70FFF0E4B186090B1EA
:102E70004FF0180383F31188BFF36F8FBFF34F8FA9
:102E8000094B4FF0FF321A60084B01221A60084BC1
:102E90001C60FEF7FDFF08B010BD00BFD0B70000FA
:102EA000E12A0000D4120010D8120010F412001011
:102EB0000C130010024A136801331360704700BFFF
:102EC000A01200102DE9F84F3B4B1B68002B6BD173
:102ED0003A4B1C6801341C60A4B9394B1A6812685B
:102EE0002AB1384940F67F20FEF77EFCFEE7364ADD
:102EF0001968106818601160344A13680133136050
:102F0000FFF702FE324D334F2B68A3424FF0000B08
:102F100011D93A68304BD16A14224A439A58022A8E
:102F200028BF4FF0010B2D4A1268002A0CBF5846EB
:102F30000120BDE8F88FDFF888A0DFF8A890DAF864
:102F4000002012681AB94FF0FF322A60E1E7DAF880
:102F50000020D268D66871688C4201D22960D8E717
:102F600006F104084046FFF770F8B16A19B106F19E
:102F70001800FFF76AF8F06AD9F80030012202FA67
:102F800000F11943144BC9F800104FF0140C4146DE
:102F90000CFB0030FFF736F83868F16AC26A9142DC
:102FA00028BF4FF0010BCAE70D4A136801331360C5
:102FB0004FF0000BB7E700BFA01200100C13001079
:102FC000C4110010A1B80000C8110010DC120010DC
:102FD000D8120010C0110010CC11001010130010F6
:102FE0009C120010A81200102DE9F8432F4C236802
:102FF0002BB92F4940F68500FEF7F6FBFEE7FEF7FA
:10300000B1FE2368013B236024682CB10024FEF745
:10301000CBFE2046BDE8F883264B1B68002BF5D07D
:10302000254D264EDFF8A8801FE0EB68DC6804F130
:10303000040904F11800FFF708F84846FFF705F8FF
:10304000E26A3168012707FA02F314200B4300FB00
:10305000028049463360FEF7D5FF194BE26A1B68D0
:10306000DB6A9A4201D3174B1F602B68002BDCD11F
:103070000CB1FFF749FD144D2C6844B1114E0127E6
:10308000FFF720FF00B13760013CF9D12C600D4BF8
:103090001B68002BBAD00D4B4FF080521A60BFF363
:1030A0004F8FBFF36F8F0124B1E700BFA012001054
:1030B00006B9000098120010E0120010A8120010CB
:1030C000C0110010101300109C12001004ED00E05D
:1030D000CC11001008B540B90D4B4FF080521A606A
:1030E000BFF34F8FBFF36F8F08BD0A4B196829B12B
:1030F000094940F23C50FEF777FBFEE7FFF7DAFEA6
:10310000FFF77CFDFFF770FF0028E5D0ECE700BF7C
:1031100004ED00E0A01200107CB700002DE9F041A2
:10312000054602F048FE0B2805D9164940F67A10EC
:10313000FEF75AFBFEE7FFF7BDFEDFF858800A26D0
:103140001427013E294607FB0680FFF70DFC0446C5
:1031500090B9002EF5D10C4B1868FFF705FC04461A
:1031600050B90A4B29461868FFF7FEFB044618B908
:103170000748FFF7F9FB0446FFF736FF2046BDE896
:10318000F08100BF6FB80000C4110010C81100101A
:10319000F8120010CC11001038B5274B1A68274BD5
:1031A00012B101221A6038BD1A60FEF749FB244AA9
:1031B000244C1568A84204D921680B6D5B1B03449D
:1031C0000B65236810601B6B1A68B2F1A53F0BD129
:1031D0005A68B2F1A53F07D19A68B2F1A53F03D171
:1031E000DB68B3F1A53F04D0206821683431FEF7D5
:1031F000DDFA154B1B68B3FA83F3DBB2C3F11F038F
:10320000142212495A4388188D582DB9104940F696
:10321000B730FEF7E9FAFEE7456808326D684560A9
:103220000A44954204BF6A684260142202FB0313F9
:103230005B68DB682360B6E7A01200101013001073
:1032400094120010C0110010A8120010CC11001030
:10325000D5B7000070B504462A4EFEF783FD04B9C9
:103260003468251D2846FEF7F0FE60B9E06A264B5B
:10327000142141435B5833B9244901220B68824031
:1032800023EA02030B60A36A1BB104F11800FEF7E6
:10329000DCFE29461E481F4DFEF7B4FE94F8583058
:1032A000012B04BF002384F85830FEF77DFD2A6807
:1032B0002AB1FEF757FDFFF727FCFEF775FD3368CF
:1032C000A34212D12B688BB1134B1B682BB113494E
:1032D00040F2E460FEF788FAFEE7114B4FF08052AF
:1032E0001A60BFF34F8FBFF36F8F70BD084A11682C
:1032F0000C4A1268914201D13360F6E7BDE8704094
:10330000FFF74ABFC0110010CC110010A812001026
:10331000F8120010F4120010A01200107CB7000088
:1033200004ED00E09812001010B50C4628B90849C9
:1033300040F6CE30FEF758FAFEE7064B1968183112
:10334000FEF76CFE20460121BDE81040FFF756BC99
:1033500096B70000C011001038B5C368DC682CB9FE
:10336000164940F62940FEF73FFAFEE704F118053A
:103370002846FEF76AFE124B1B68E3B9251D284656
:10338000FEF763FE0F49E26A086801239340034396
:103390000B600D4B1420294600FB0230FEF732FE75
:1033A0000A4BE26A1B68DB6A9A4283BF084B012022
:1033B0001860002038BD29460648EFE7F7B800003E
:1033C000A0120010A8120010CC110010C0110010A3
:1033D00010130010E0120010034B1B680360034B36
:1033E0001B684360704700BFDC1200100C13001014
:1033F00070B50C46054628B9164940F69440FEF7CC
:10340000F3F9FEE729B9144940F69540FEF7ECF9C7
:10341000FEE7FEF7A7FC114B196823685A1C10D071
:103420000F482E6800686A68864201D08A420FD928
:10343000881A83420AD95B1A134423602846FFF78F
:10344000CBFF0024FEF7B0FC204670BD00232360B4
:103450000124F7E7C6B700001CB800000C130010E9
:10346000DC120010014B01221A607047101300108B
:1034700070B50C461646054608B91B4A1568256006
:1034800005F134026260EA6A22612A6BE2612A6C09
:10349000A260AA6C6261052B2A6DA2611AD0124A41
:1034A0001268AA420AD100232373D6B1296B0023E4
:1034B000CA5CA52A13D09B08238470BD032B2373F9
:1034C000F3D1FFF7F7FCAB6A0BB102232373FFF7CD
:1034D0008BFDEAE72846FFF73BFC2073E5E7013365
:1034E000E6E72684E9E700BFC01100102DE9F84F98
:1034F0000D6881460C46934615B34B685B684B607C
:1035000001F10806B34204BFCB684B604B68D3F8A7
:103510000C8000254FF0240A63685B6863609E425C
:1035200004BF736863606368DF680AFB05915B46EC
:1035300001223846FFF79CFFB84505F10105EBD1A4
:103540002846BDE8F88FFFFF2DE9F0470546904675
:10355000FFF7B0FC1D4B1B688B4234D8DFF87C9022
:103560000A2700244FF0140A2426013F06FB0450CA
:1035700001220AFB0791FFF7B9FF0444002FF4D1A1
:10358000134B0222196806FB0450FFF7AFFF114BE3
:1035900004441968022206FB0450FFF7A7FF044405
:1035A00006FB045003220C49FFF7A0FF0444B8F1C6
:1035B000000F03D0FEF744F9C8F80000FFF714FD30
:1035C0002046BDE8F0870024F8E700BF98120010FD
:1035D000C4110010C8110010F8120010CC11001016
:1035E000054B1B6833B1054B1B68002B0CBF022039
:1035F0000020704701207047F4120010A012001044
:103600002DE9F0410446002835D0234AC36A1168E9
:10361000C96A8B42174636D28269204D002AA1BF63
:103620003A68D26AC2F10A0282611426426906FB34
:1036300003539A4221D100F104084046FEF705FDEC
:10364000174B48B9E06A4643AA592AB91A680121BA
:10365000814022EA01021A603A681968D26AE2627D
:10366000012404FA02F0084318601420414600FBCC
:103670000250FEF7C7FC204603E03B68DB6AC362EA
:103680000120BDE8F0811368806CDC6AA0422CBF89
:1036900000200120F5E700BFC0110010CC11001080
:1036A000A8120010F8B5044608B90020F8BD1F4B59
:1036B0001B68834205D01E4940F6D170FEF794F88E
:1036C000FEE7DB6C2BB91B4940F6D270FEF78CF895
:1036D000FEE7C16A826C013B9142C364E5D0002BD6
:1036E000E3D1051D2846FEF7B0FC134E134A50B92E
:1036F000E76A1421794373582BB913680120B84045
:1037000023EA00031360A36CE362C3F10A01A16121
:103710001168012404FA03F008431060142000FB30
:1037200003602946FEF76EFC2046BFE7C01100107B
:10373000CCB80000E2B80000CC110010A8120010B4
:10374000F8B50446002847D0C26C2AB923494FF483
:103750008150FEF749F8FEE7836C994238BF19465D
:10376000C36A8B4238D0012A36D11D4A1268824280
:1037700005D11C4941F23B00FEF736F8FEE78269AD
:10378000194DC162002A4FF014064269A8BFC1F169
:103790000A0106FB0353A8BF81619A421CD1071D91
:1037A0003846FEF752FCE26A104C40B95643AB591A
:1037B0002BB923680121914023EA0103236021688A
:1037C000012393400B4314202360394600FB025031
:1037D000BDE8F840FEF716BCF8BD00BFE2B8000037
:1037E000C0110010A2B70000CC110010A8120010E8
:1037F000044B1A681AB11968CA6C0132CA64186895
:10380000704700BFC011001070B5FFF753FB144D97
:103810000A241426013C06FB04F3E818EB580BB10C
:10382000FFF7CCF8002CF5D10E4B1A68126812B1D4
:103830001868FFF7C3F80C4B1A68126812B11868C1
:10384000FFF7BCF8094803680BB1FFF7B7F8084B5E
:1038500000221A60FDF7FEFFBDE87040FFF7C4BB11
:10386000CC110010C4110010C8110010F812001083
:103870009412001010B5FDF7E3FF064B064A1968D5
:1038800029B1196814680B6D1B1B03440B6510608C
:1038900010BD00BFC01100109412001008B5FDF754
:1038A000CFFF014B186008BD9412001038B50122FB
:1038B0000221002000F0C3F801220321002000F0C3
:1038C000BEF804220021012000F0B9F801210422F1
:1038D000084600F0B4F804221146012000F0AFF8C9
:1038E0000821012000F01AF9284B4FF480729A61E8
:1038F0000921012000F0EEF802220A21002000F048
:103900009EF802220B210546002000F098F804469C
:10391000284600F0A9F8204600F0A6F8032102206E
:1039200000F0FCF81A4B1B4D18701A21012000F012
:10393000F5F8194B194C18701821012000F0EEF819
:10394000174B12211870012000F0E8F8154B1321D5
:103950001870012000F0BEF80F212870012000F03F
:10396000B9F81E212070002000F0B4F80E4B1D2184
:103970001870002000F0AEF80C4B1870287800F09A
:1039800083F82078BDE8384000F07EB82080092018
:103990001413001018130010151300101913001041
:1039A00016130010171300101A1300101B13001029
:1039B000024B4FF48072DA61704700BF208009200B
:1039C000024B4FF480729A61704700BF208009203B
:1039D000034B586980F40070C0F34020704700BF6B
:1039E00020800920014B1878704700BF1413001085
:1039F000014B1878704700BF15130010014B187861
:103A0000704700BF16130010014B1878704700BFB5
:103A100017130010C0F3C40300F007029B0003EB70
:103A2000C21303F1804303F5303301F007011A6834
:103A300022F007021A601A6811431960704738B5FE
:103A400000F007054FF0000001F01F0465F30200CD
:103A500064F3C7001146FFF7DDFF4FF0000065F388
:103A6000020064F3C70038BDC0F3C40300F00702CE
:103A70009B0003EBC21303F1804303F530331A6854
:103A800042F480621A607047C0F3C40300F007027A
:103A90009B0003EBC21303F1804303F530331A6834
:103AA00022F018021A601A6842F008021A60704781
:103AB00000F00702064B53F82210C0F3C4000B6855
:103AC000012202FA00F023EA00030B60704700BFF6
:103AD0001CB9000038B500F007054FF0000001F0F8
:103AE0001F0465F3020064F3C700FFF7E1FF4FF026
:103AF000000065F3020064F3C70038BD00F0070260
:103B0000054B53F82220C0F3C403116801209840EC
:103B100008431060704700BF1CB9000038B500F0C2
:103B200007054FF0000001F01F0465F3020064F385
:103B3000C700FFF7E3FF4FF0000065F3020064F3F6
:103B4000C70038BD00F00702064B53F82230C0F31F
:103B5000C4005A69012303FA00F0104214BF18464A
:103B6000002070471CB9000000F00702044BC0F3AE
:103B7000C40053F82220012303FA00F0906170473B
:103B80001CB9000000F00702044BC0F3C40053F856
:103B90002220012303FA00F0D06170471CB9000015
:103BA00008B50146FFF7CEFF20B10846BDE8084042
:103BB000FFF7E8BF0846BDE80840FFF7D5BFFFFFA5
:103BC0002DE9F8430F4F0C2444433E1988463579BC
:103BD0002846914600F038FA3C5900233F226360A2
:103BE0004946A360284622606361B268A361E3612D
:103BF0002362636200F04CFA0123C4F80C80636016
:103C0000BDE8F88334B900000C235843064B1B5819
:103C100030B501205C6901EB4105A84020435861A3
:103C2000183343F8212030BD34B900000C23584329
:103C3000034B1A58012303FA01F11160704700BFCA
:103C400034B900000C235843014B1B589868704747
:103C500034B900000C235843014B1B58996070473E
:103C600034B900002DE9F041044617461E46884647
:103C7000FFF7B6FC00210546A068FEF755FD0023BE
:103C80002374069BA361079BE361236884F811807A
:103C90002022022DA77466611A600BD140F6B8315C
:103CA000A068FEF741FD18B1207CB0FA80F0400911
:103CB000BDE8F0810021A068FEF736FD0028F9D0AC
:103CC000F2E7FFFF03685A68402A13B500F09D80B1
:103CD00019D8182A60D00FD8082A50D0102A55D0E9
:103CE0005A68027420229A6110221A6008229A618E
:103CF0001A68D206FCD45BE0282A6DD0382AEFD1AE
:103D00005B68037454E0602A22D013D8502A00F074
:103D10008580582AE4D14269996811700022C261F5
:103D200020229A6110221A6008229A611A68D1062C
:103D3000FCD43DE0A02A18D0A82A1AD0802ACFD1DE
:103D40003D493E4A087858B998681070012203E04E
:103D50003A4900220A7038490A7004221A6019E0B0
:103D60001278374998688854F7E7334A0021117070
:103D7000F3E7324A324912788A5C9A60EDE7417C77
:103D800001F0FE0199609A6102B010BD427C42F0E0
:103D900001029A600822F6E7C4692021996108228D
:103DA000C4B99961102119609A611A68D106FCD4CE
:103DB000002301A980680193FEF7C6FB019B002B3D
:103DC000E2D0204B4FF080521A60BFF34F8FBFF309
:103DD0006F8FD9E7817CD5E7427CD20701D52022BD
:103DE000BCE7C2694AB920229A6110221A600822EF
:103DF0009A611A68D406FCD4DAE78169013A11F8AD
:103E0000014B9C608161C261C4E720229A61C26952
:103E1000012A4FF00402A1D89A61BBE74269996870
:103E20001170426901324261C269013A012AC261DC
:103E30004FF0040292D1EFE71D1300101C13001085
:103E40001E13001004ED00E00148FFF73BBF00BF68
:103E50009C0000100148FFF735BF00BF7C00001038
:103E60000148FFF72FBF00BF5C0000102DE9F043B1
:103E7000264B06461546894693E8070085B004ABF5
:103E800003E9070040F60A33ADF800300C238DF843
:103E900002301F4A7301D718D45804AB33440322AD
:103EA0000021012013F8108CFEF7F4F9B86001200E
:103EB000FEF7D9FAF860404600F0C6F86C23A3611B
:103EC000144A154B914588BF99462823B5FBF9F252
:103ED0005208C8215343B3FBF1F323613C235A43F7
:103EE0000023B2FBF1F26261A36263622362E360CA
:103EF0004023236004AB03EB86067A6856F80C1C5B
:103F0000404605B0BDE8F04300F0C2B87CB90000FF
:103F10005C00001040420F00A08601002DE9F34133
:103F20000F4690461D4623B90025284602B0BDE83D
:103F3000F0810E4C04EB40144FF0FF31E068FEF7C7
:103F4000F3FB0028F0D00026089B019342462B4645
:103F500047F0010100962046FFF784FE33460546F0
:103F600032463146E068FEF7BBF9DEE75C00001040
:103F70001FB500238DF80F30012300930DF10F03BF
:103F8000FFF7CCFF9DF80F0005B05DF804FBFFFFC5
:103F9000F7B50E4617461D461BB90025284603B047
:103FA000F0BD0E4C04EB40144FF0FF31E068FEF71B
:103FB000BBFB0028F1D0089B3A46CDE9005306F040
:103FC000FE0100232046FFF74DFE002305461A465A
:103FD0001946E068FEF784F9E0E700BF5C000010D6
:103FE0001FB5002200920DF10F038DF80F20FFF78F
:103FF000CFFF05B05DF804FB1FB58DF80F3001232E
:1040000000930DF10F03FFF7C3FF05B05DF804FB4C
:10401000FEE7FFFF08B5FFF72DFC084B084A1B78A9
:10402000103BDBB252F823309847064B00221A604F
:104030001B68BDE80840FFF731BC00BF04ED00E09D
:10404000BC00001020140010592809D8054B064A5E
:10405000185CD2F8C410012383400B43C2F8C4306B
:10406000704700BF97B9000000C00F4059289FBF9C
:10407000054B064AD3F8C430105C9ABF23FA00F00F
:1040800000F001000020704700C00F4097B9000009
:10409000592808BF1920084B43F8201043B2002BC1
:1040A00008DB012200F01F0002FA00F05B09034A5E
:1040B00042F82300704700BFBC00001000E100E0A0
:1040C00073B54FF0FF33B1F5805F019336D21D4CCD
:1040D0002369DE0734D41C4B1D69ED0730D41B4D1A
:1040E0000326AE602E611A4D1D6002B301AE5E6004
:1040F00041F00046DE6041F20F061E61DAB1206039
:1041000041F0806140F68112E16065602261114AF0
:10411000516A41F003015162D868C0F30B000028D6
:10412000FAD1536A23F00303536202B070BD5860A2
:1041300041F00846DEE701AA2260E3E70120F4E748
:104140000220F2E7000108202001082000000820DA
:1041500008C00A4000C00A4010B50446FCF75EF8EB
:104160004FF47A73B0FBF3F00223B0FBF3F2A242F8
:1041700002D8034A136110BD0233DBB2F5E700BF7A
:1041800000C00A4010B504462420FFF75DFF0B4B2A
:1041900007221A6002225A602046FFF7DDFF1A202C
:1041A000FFF752FF064B01221A631A6BD207FCD5A8
:1041B000044A0023936042F8183C10BD00C00A4036
:1041C0000000082020010820034B9860DA68D2061E
:1041D000FCD49868C0B2704700C00A400122FFF7C3
:1041E0006FBF0022FFF76CBF02689368C3F34203FE
:1041F000022B73B5064623D0062B21D0012B34D1D8
:1042000000248DF803400194102501AA0DF103014B
:10421000B068FEF749FB48B133689DF803201A7077
:10422000019B002B18BF0124013DEED10CB3124BB2
:104230004FF080521A60BFF34F8FBFF36F8F18E0BB
:104240000024019433681A7DD207EFD51B788DF8CE
:10425000033001AA00230DF10301F068FEF716F9FF
:10426000019B002B18BF0124ECE7137DDBB2019307
:10427000019B02B070BD00BF04ED00E00148FFF7F4
:10428000B3BF00BF900100100148FFF7ADBF00BFF2
:10429000800100100148FFF7A7BF00BF70010010A8
:1042A0000148FFF7A1BF00BF60010010154B70B5BA
:1042B00016460546185C0C463601FFF7C5FEB4FBF2
:1042C000F6F307EE903AF8EE677AB6EE007A77EEFC
:1042D000877A2D01FCEEE77A0B4A17EE903A525995
:1042E0009BB280211173190ADBB211711370102374
:1042F00082F828300123137281231372032313736E
:1043000070BD00BF1CBA000060010010074B10B563
:104310000446185CFFF7AAFE30B12401044B1B5978
:10432000187B003018BF012010BD00BF1CBA000070
:1043300060010010034B03EB00108068003018BFD1
:1043400001207047600100102DE9F84307468946B7
:104350009046FFF7DBFF064618B900263046BDE859
:10436000F883124C3D016319DA6822B9B9F1000FE4
:1043700001D0C3F80C9063199A6822B9B8F1000F04
:1043800001D0C3F808806319DA68002AE5D09A687A
:10439000002AE2D05A68064B53F82710054BD85D27
:1043A000FFF776FE635907225A60D7E760010010D5
:1043B0000CBA00001CBA000038B5074A03010D46CC
:1043C000D458FFF7A3FF30B1237D9A06FCD52570A2
:1043D000237D9B06FCD538BD6001001070B50446F6
:1043E0000E461546FFF7FCF80E4B03EB0413DC6892
:1043F000B4B1022814D16B1C09D04FF47A70A5FB1C
:1044000000014FF47A72002300F098F805462A461E
:1044100031462046FEF7EAF8003018BF012070BD93
:104420000020FCE7600100102DE9F84305460E4628
:10443000114CFFF7D5F82F01E31981462846D3F830
:104440000C80FFF763FF98B1B9F1020F0AD1B8F100
:10445000000F07D0314628464FF0FF32BDE8F84341
:10446000FFF7BCBFE3591A7DD207FCD51B78337028
:104470000020BDE8F88300BF60010010F7B50546D5
:104480001C4E8DF807102D011746FFF7A9F8731978
:104490009C6854B302282BD1791C09D04FF47A7050
:1044A000A7FB00014FF47A72002300F047F807469B
:1044B00000233A460DF107012046FDF711FF041CC9
:1044C00018BF0124FDF74EFC731975592A7D520659
:1044D00009D500220DF107019868FEF7E5F910B142
:1044E0009DF807302B70FDF75FFC204603B0F0BD50
:1044F0000024FAE76001001008B54FF47A70FEF767
:10450000E9FDFAE713B5FCF7E7FD094801F02AFBDE
:1045100000240323CDE900344FF4FA722346054901
:104520000548FEF7E7FBFEF78BFC204602B010BD06
:1045300020BA000026BA0000F944000053B94AB975
:10454000002908BF00281CBF4FF0FF314FF0FF309B
:1045500000F074B9ADF1080C6DE904CE00F006F876
:10456000DDF804E0DDE9022304B070472DE9F047EF
:10457000089E04468846002B40F085808A421546F6
:1045800048D9B2FA82F24AB1C2F1200701FA02F325
:1045900020FA07F7954047EA030894404FEA154E82
:1045A000230CB8FBFEF71FFA85FC0EFB178843EAC5
:1045B000084307FB0CF1994209D9EB1807F1FF30CA
:1045C00080F0E380994240F2E080023F2B445B1A86
:1045D000A4B2B3FBFEF00EFB103344EA034400FB2D
:1045E0000CFCA44509D92C1900F1FF3380F0CB80D5
:1045F000A44540F2C88002382C4440EA0740A4EBAE
:104600000C0400271EB1D4400023C6E900433946FC
:10461000BDE8F087002A53D0B2FA82F2002A40F0B7
:10462000B680491B4FEA154E1FFA85F80127B1FBEA
:10463000FEFC230C0EFB1C1143EA014308FB0CF1AA
:10464000994207D9EB180CF1FF3002D2994200F2DF
:10465000EC808446591AA3B2B1FBFEF00EFB101495
:1046600043EA044408FB00F8A04507D92C1900F1DF
:10467000FF3302D2A04500F2DC801846A4EB080408
:1046800040EA0C40BEE78B4208D9002E78D00027C4
:10469000C6E9000138463946BDE8F087B3FA83F72A
:1046A0007FB98B4202D3824200F2BD80841A61EB53
:1046B000030301209846002EA9D0C6E90048A6E7CA
:1046C000FFDEC7F12005BB4022FA05FC4CEA030CD3
:1046D00001FA07F420FA05F821FA05F34FEA1C4E17
:1046E00048EA0404B3FBFEF9210C0EFB19331FFA50
:1046F0008CF841EA034309FB08FA9A4502FA07F2EB
:1047000000FA07F10BD91CEB030309F1FF3080F02D
:1047100088809A4540F28580A9F102096344A3EBA1
:104720000A03A4B2B3FBFEF00EFB103344EA0344C9
:1047300000FB08F8A04508D91CEB040400F1FF3386
:104740006BD2A04569D90238644440EA0940A4EB21
:104750000804A0FB02894C45C6464B4654D351D0B1
:10476000002E69D0B1EB0E0264EB030404FA05F5E8
:1047700022FA07F3FC401D43C6E90054002746E730
:104780003746304643E7184637E707461FE7C2F18A
:10479000200320FA03F7954001FA02F021FA03F30F
:1047A0004FEA154E3843010CB3FBFEF71FFA85F8AC
:1047B0000EFB173341EA034107FB08F38B4204FA6F
:1047C00002F407D9691807F1FF3C28D28B4226D999
:1047D000023F2944CB1A81B2B3FBFEF00EFB10332B
:1047E00041EA034100FB08F38B4207D9691800F145
:1047F000FF3C10D28B420ED902382944C91A40EA34
:10480000074714E74145ABD2B8EB020E69EB0C0247
:1048100001381346A4E76046F0E7184695E7674677
:10482000D8E781467BE7384645E7ACF1020C2B44DC
:1048300010E702382C4421E73746E8E6704700BF0E
:104840000A22002102F088B90EB403B5014603AB79
:10485000054853F8042B0068019300F09DF902B05D
:104860005DF804EB03B07047A001001070B50E4670
:104870001446054618B183690BB903F00FFA2B4BA8
:104880009C421ED16C68636EDA0705D4A3899B0530
:1048900002D4A06D00F06BF8A38918071BD523691B
:1048A000CBB1013E16F8011F39BB656E15F001054D
:1048B00039D1A389990502D4A06D00F059F8284692
:1048C00070BD1B4B9C4201D1AC68DCE7194B9C428C
:1048D00008BFEC68D7E72146284602F001FA002815
:1048E000DFD0636EDA0705D4A3899B0502D4A06DDF
:1048F00000F03EF84FF0FF35E1E7A368013B002BE5
:10490000A36004DAA269934206DB0A2904D0236873
:104910005A1C22601970C5E72246284602F08EF91B
:104920000130BFD1DDE70D46C9E700BF00BC000084
:1049300020BC0000E0BB0000024B0A46014618689C
:10494000FFF794BFA0010010074B10B51C6824B1FD
:10495000A36913B9204603F0A1F961682046BDE8B8
:10496000104003F07DBD00BFA001001070477047EC
:104970007047FFFF024B0146186800F089B800BF7E
:10498000A0010010024B0146186800F033B800BFC8
:10499000A00100100A44914200F1FF3300D170479A
:1049A00010B511F8014B03F8014F9142F9D110BD38
:1049B000884210B501EB020302D983421C4607D896
:1049C000421E994208D011F8014B02F8014FF8E756
:1049D00083189A1A9A4200D110BD14F8011D03F8E9
:1049E000011DF7E702440346934200D1704703F8E4
:1049F000011BF9E738B50546002945D051F8043CBC
:104A00000C1F002BB8BFE41803F03AFE1F4A1368CE
:104A1000104633B9636014602846BDE8384003F09F
:104A200035BEA3420CD921686218934204BF1A68AC
:104A30005B68636004BF521822600460ECE71346B1
:104A40005A680AB1A242FAD919685818A0420BD183
:104A500020680144581882421960DDD110685268FC
:104A60005A6001441960D7E702D90C232B60D3E7C1
:104A7000206821188A4204BF11685268626004BF2E
:104A8000091821605C60C7E738BD00BF241400101E
:104A9000F8B5CD1C25F0030508350C2D38BF0C25C5
:104AA000002D064601DBA94203D90C233360002008
:104AB000F8BD03F0E5FD21490A6814469CB9204F72
:104AC0003B6823B92146304601F054F83860294646
:104AD000304601F04FF8431C23D10C23336030469D
:104AE00003F0D4FDE3E723685B1B17D40B2B03D93A
:104AF00023601C44256004E06368A2420CBF0B6085
:104B00005360304603F0C2FD04F10B00231D20F07A
:104B10000700C21ACCD01B1AA350C9E7224664680A
:104B2000CCE7C41C24F00304A042E3D0211A304691
:104B300001F020F80130DDD1CFE700BF24140010D0
:104B4000281400109368013B002B10B4936008DA1E
:104B50009469A34201DB0A2903D15DF8044B02F0FA
:104B60006DB81368581C1060197008465DF8044B46
:104B70007047F8B506460F461446D518AC4201D129
:104B8000002007E03A4614F8011B3046FFF7DAFF31
:104B9000431CF3D1F8BDFFFF2DE9F04F0D469DB04A
:104BA00014461E46074618B183690BB903F076F820
:104BB000854B9D421BD17D686B6ED90705D4AB89AF
:104BC0009A0502D4A86DFFF7D2FEAB891B0701D569
:104BD0002B69EBB92946384602F082F8C0B16B6EFA
:104BE000D8070ED54FF0FF301DB0BDE8F08F774BE2
:104BF0009D4201D1BD68DFE7754B9D4208BFFD684E
:104C0000DAE7AB899905EDD4A86DFFF7B1FEE9E7C6
:104C10000023099320238DF82930DFF8B8910396FB
:104C200030238DF82A304FF0010A23461E4613F830
:104C3000012B0AB1252AF9D1B6EB040B0BD05B4648
:104C4000224629463846FFF794FF013000F0A38042
:104C5000099B5B4409933378002B00F09C80002370
:104C60004FF0FF32CDE905230136049307938DF809
:104C700053301A933446052214F8011B554803F0AB
:104C8000AFFC049BC0B9DA0644BF20228DF8532044
:104C9000180744BF2B228DF8532032782A2A13D0CC
:104CA000079A344600200A26214611F8013B303B82
:104CB000092B4BD970B914E0A0EB09000AFA00F0F7
:104CC000184304902646D5E7039A111D12680391F4
:104CD000002A01DB079204E0524243F002030792EC
:104CE000049323782E2B0CD163782A2B33D1039B8A
:104CF0001A1D1B680392002BB8BF4FF0FF3302341C
:104D00000593354E21780322304603F069FC38B113
:104D10004023801B03FA00F0049B034301340493F7
:104D200014F8011B2D488DF82810062203F058FCBA
:104D300000283FD02A4B13BB039B073323F0070304
:104D400008330393099B434409936EE706FB023241
:104D500001200C46A8E700230134059319460A26D2
:104D6000204610F8012B303A092A03D9002BC8D06D
:104D70000591C6E706FB012101230446F0E703ABDA
:104D800000932A46174B04A9384600F0BDF8B0F14D
:104D9000FF3F8046D6D16B6ED90705D4AB899A0503
:104DA00002D4A86DFFF7E4FDAB895B063FF51AAFAF
:104DB000099819E703AB00932A460A4B04A9384621
:104DC00000F042FBE3E700BF00BC000020BC000095
:104DD000E0BB000034BB00003ABB00003EBB00005B
:104DE000094F0000734B00002DE9FF4755EC104BB5
:104DF000002D0E4691461946DDF830A04FF0000216
:104E000003DA05F100431D462D220D9F0A7027F09D
:104E10002007462F04D0452F00D10136022100E0A3
:104E2000032103AB019302AB00933246534645EC9A
:104E3000104B02F04DF8472F804602D119F0010FB8
:104E400022D0462F08EB060911D198F80030302BFC
:104E50000AD1002200232046294605F06BFB18B931
:104E6000C6F10106CAF80060DAF800309944002261
:104E700000232046294605F05DFB08B1CDF80C90D3
:104E80003022039B4B4508D3039B0E9AA3EB0803E8
:104E90004046136004B0BDE8F087591C03911A70B6
:104EA000EFE7F7B50029BABF49422D232B23092983
:104EB0000270437021DD0DF107031F460A2691FBA6
:104EC000F6F206FB12143034632903F1FF3503F8C0
:104ED000014C0ADC303205F8012C023B821CBB423B
:104EE000144605D3201A03B0F0BD2B461146E6E761
:104EF00013F8011B02F8011BF1E7302319448370FA
:104F0000041DC170EEE7FFFF2DE9F04F8DB00C4698
:104F1000DDF8588016461F46054603F0E1FA03689F
:104F20000693184600F047FF00230A93D8F8003094
:104F30000790073323F0070303F1080294F818A041
:104F4000D4F800B0C8F80020D3E90023C4E9122344
:104F500094ED127B8DED047BDDE9048323F00049A1
:104F60004FF0FF32A64B4046494605F015FB70BB9B
:104F70004FF0FF32A24B4046494605F0EFFA30BBF6
:104F800000220023DDE9040105F0DEFA10B12D2333
:104F900084F843309B4A9C4BBAF1470F94BF90462C
:104FA000984603232BF00402236122604FF000098E
:104FB000009733460BAA2146284600F0CFF901306E
:104FC00040F08C804FF0FF300DB0BDE8F08FDDE990
:104FD00004231046194605F0DFFA40B1059B8B4AC1
:104FE000002BBCBF2D2384F84330894BD4E7636882
:104FF0005A1C0AF0DF093ED10623636000230393A5
:105000000AAB4BF48062CDE901A309AB0093616860
:1050100022600DF123039DED040B2846FFF7E4FE0B
:10502000B9F1470F8046099908D1C81C02DB6368B3
:10503000994241DDAAF1020A5FFA8AFABAF1650FD4
:1050400020D80139524604F150000991FFF729FF99
:105050000A9A1318012A8146236102DC2268D207CA
:1050600001D5013323619DF82330002BA0D02D23DF
:1050700084F843309CE7B9F1470FBFD1002BBDD175
:105080000123BAE7BAF1660F18D1002963680BDD76
:10509000216113B92268D00702D501330B44236183
:1050A000A1654FF00009DEE713B92268D20701D5E8
:1050B0000233F4E70123F2E74FF0670A0A9B9942B3
:1050C00005DB23682161D807EAD54B1CE7E70029F7
:1050D000D4BFC1F1020201221344E0E723685A055C
:1050E00007D42369424631462846B84701302BD1C0
:1050F00068E7BAF1650F40F2DC8000220023D4E9B2
:10510000120105F017FA002833D00123414A314635
:105110002846B84701303FF455AFDDE909239A42EC
:1051200002DB2368D8070FD5DDE906233146284680
:10513000B84701303FF446AF4FF0000804F11A09B8
:105140000A9B013B434509DC23689B0700F1018171
:10515000E0680B9B9842B8BF184635E701234A46E2
:1051600031462846B84701303FF42CAF08F101081A
:10517000E6E7099B002B2BDC0123264A3146284613
:10518000B84701303FF41EAFDDE90923134302D1D4
:105190002368D907D8D5DDE9062331462846B84724
:1051A00001303FF40FAF4FF0000904F11A0A099BD8
:1051B0005B424B4501DC0A9B94E701235246314692
:1051C0002846B84701303FF4FDAE09F10109EEE78A
:1051D0000A9AA36D9A42A8BF1A46002A914607DD93
:1051E0001346314642462846B84701303FF4EAAEFE
:1051F00004F11A034FF0000B29EAE979049315E052
:10520000FFFFEF7F45BB000049BB00004DBB000026
:1052100051BB000063B400000123049A31462846C4
:10522000B84701303FF4CEAE0BF1010BD4F858A0D3
:10523000AAEB09035B45EFDCDDE909239A421BDB9E
:105240002368DA0718D4DDE9092392451CDBA3EBB8
:105250000A09B9F1000F08DD4B4608EB0A02314696
:105260002846B84701303FF4ADAE4FF0000829EAB8
:10527000E97904F11A0A14E0DDE9062331462846EB
:10528000B8470130DFD19DE6A3EB0209E1E7012336
:10529000524631462846B84701303FF493AE08F1F4
:1052A0000108DDE909239B1AA3EB09034345EEDC62
:1052B0004AE70A9A012A01DCDB0737D50123424677
:1052C00031462846B84701303FF47CAEDDE906237D
:1052D00031462846B84701303FF474AE002200231F
:1052E000D4E9120105F026F9D8B90A9B08F10102A8
:1052F000013B31462846B84701300ED162E6012312
:10530000524631462846B84701303FF45BAE08F1BB
:1053100001080A9B013B4345F1DC4B4604F1500276
:10532000E1E64FF0000804F11A0AF2E701234246D1
:10533000DFE701234A4631462846B84701303FF4AB
:1053400041AE08F10108E3680B9A9B1A4345F0DC73
:10535000FEE64FF0000804F11909F4E72DE9F047E3
:1053600091461F468A680B69DDF820809342B8BFDA
:105370001346C9F8003091F8432006460C4612B196
:105380000133C9F800302368990642BFD9F80030CC
:105390000233C9F80030256815F0060507D104F17D
:1053A000190AE368D9F800209B1AAB4228DC94F86C
:1053B00043302268003318BF012392062DD404F134
:1053C000430239463046C047013020D02368E568A3
:1053D000D9F8002003F00603042B08BFAD1AA36818
:1053E00022690CBF25EAE57500259342C4BF9B1ACC
:1053F000ED184FF000091A344D451AD1002008E08D
:105400000123524639463046C047013003D14FF0A0
:10541000FF30BDE8F0870135C3E7E1185A1C3020A2
:1054200081F84300224494F8451082F84310023377
:10543000C5E70123224639463046C0470130E6D051
:1054400009F10109D8E7FFFF2DE9F04306460C46B4
:1054500001F14300097E85B06E29984617460C9BE2
:1054600000F0BA8024D8632939D00AD8002900F086
:10547000C380582900F0918004F1420584F842105D
:1054800035E0642901D06929F6D125681A6815F03C
:10549000800F02F104012CD012681960002A03DA8F
:1054A0002D23524284F84330DFF8BCC10A233FE089
:1054B000732900F0A58008D86F2921D07029DBD18D
:1054C000226842F02002226003E0752918D0782972
:1054D000D2D1782284F84520DFF890C161E01A68C3
:1054E000111D1960136884F8423004F1420501234C
:1054F00093E01268196015F0400F18BF12B2CDE7A3
:10550000D4F800C01A681CF0800F02F104051D6079
:1055100001D0126803E01CF0400FFAD01288DFF8C7
:1055200048C16F290CBF08230A23002184F84310C7
:105530006568A560002DA2BF216821F004012160EB
:105540000AB9002D46D00546B2FBF3F103FB112E3C
:1055500093421CF80EE005F801ED39D9082B0BD168
:105560002368DA0708D5236962689A42DEBF3023D0
:1055700005F8013C05F1FF35401B2061CDF80080A6
:105580003B4603AA21463046FFF7E8FE013049D1E9
:105590004FF0FF3005B0BDE8F083DFF8CCC084F8F1
:1055A00045101D68216855F8042B1D600D060BD5AC
:1055B000CD0744BF41F0200121601AB9236823F0D0
:1055C000200323601023B0E74B0648BF92B2EFE7F9
:1055D0000A46B9E70546C1E71A68D4F800C0616910
:1055E000151D1D601CF0800F136801D0196003E0C9
:1055F0001CF0400FFAD01980002323610546BDE757
:105600001A68111D1960156862680021284602F0A9
:10561000E7FF08B1401B606063682361002384F8E2
:105620004330ABE723692A4639463046C04701304C
:10563000AED023689B0713D4E068039B9842B8BFA1
:105640001846A7E701234A4639463046C04701308D
:105650009ED00135E368039A9B1AAB42F2DCEBE77C
:10566000002504F11909F5E755BB000066BB0000F1
:105670002DE9F04F87B0174603938B685A1EB2F599
:10568000AE7F83BF6FF4AE755B190293002386BFB4
:1056900040F25D138B6002930B688B46002543F448
:1056A000F0634BF81C3BCDE9045581460C465E4641
:1056B000AA46A8460195A26882B13B681B78492B8F
:1056C00075D04FD8392B41D8312B80F087802D2BC6
:1056D00000F08F8017D82B2B00F08B80B8F1000FD3
:1056E00003D0236823F4807323600AF1FF3ABAF1F0
:1056F000010F00F2DD805E4500F2CF8001252846D3
:1057000007B0BDE8F08F2E2B00F09380302BE5D151
:105710002168C80562D5029B21F08001216008F153
:1057200001081BB1013B01320293A260A368013B57
:10573000A3602369013323617B68013B002B7B60FD
:1057400040F3A2803B6801333B60B4E7452B7AD03D
:10575000462B64D0412BC1D1BAF1010FBED14FF01D
:10576000020A43E0652B6ED01AD8542B5CD013D8B4
:105770004E2BB3D1BAF1000F42D1B8F1000F42D194
:10578000226802F4E061B1F5E06F3CD122F4F062EE
:1057900022604FF0010A29E0592B1BD0612BDAE778
:1057A0006E2BE7D012D8662B39D0692B96D195BBDA
:1057B000B8F1000F95D1226802F4E061B1F5E06F15
:1057C00093D122F4F062226001250FE0742B2BD0DC
:1057D000792B83D1072D81D1082507E01AEB050F1E
:1057E0007FF47CAF226822F4C072226006F8013B8D
:1057F0009CE7226810067FF571AF22F08002F4E783
:10580000BAF1020F3DD0012D02D0042D7FF466AF16
:105810000135EDB2EAE7032DFAD0052DF6E7022DAA
:105820007FF45CAF0325E1E7062D7FF457AF072532
:10583000DCE7226891057FF551AF22F420722260E7
:10584000CDF80480D2E7226802F4A061B1F5806F40
:1058500006D050057FF542AFB8F1000F3FF445AFD9
:10586000910558BF019922F4F06258BFA8EB0101DD
:1058700042F4C07258BFCDE9041622604FF0000810
:10588000B4E74FF0030AB1E7D4F88031394648460F
:10589000984700283FF40FAF20E7D4F87C3116F882
:1058A000011D3A46484698472369013B236122E798
:1058B0006B1E062B25D8022D36D85E457FF61EAF0F
:1058C000D4F87C3116F8011D3A46484698472369BA
:1058D000013B2361F1E70298D4F87C3110F8011DF7
:1058E00002903A46484698472369013B23610AF1F2
:1058F000FF3A5FFA8AFABAF1020FECD1033DEDB23A
:10590000761B2368DA052FD55B0510D55E457FF63B
:10591000F5AED4F87C3116F8011D3A464846984752
:105920002369013B2361F1E7AA460296DFE716F8F7
:10593000011C2369652903F1FF3306F1FF3523615B
:105940000CD045290AD0D4F87C313A4648469847CD
:10595000236916F8021C013BB51E2361D4F87C3183
:105960003A46484698472E46256815F0100558D106
:105970003570236803F4C063B3F5806F1CD1019BBD
:105980004345A3EB080224D100225946484601F0C2
:1059900063F8039B21681B6811F0020F57EC106B32
:1059A00003F1040220D003990A601B68C3E9006771
:1059B000E3680133E360A2E6049B002BE4D0059981
:1059C0000A232A460131484601F0C4F8049B059E8B
:1059D000C21A04F26F139E4228BF04F5B77612492B
:1059E000304600F09FF9CFE711F0040F03990A60E9
:1059F000DBD1D3F8008010EE102A3B4610EE100ADF
:105A0000394604F0C9FD28B1084800F085F988ED51
:105A1000000ACDE73046394604F01CFEC8F8000005
:105A2000C6E700256BE600BF77BB0000A5AB000012
:105A30000FB40A4B13B51C6824B1A36913B92046EF
:105A400002F02CF905AB049AA16801932046FFF7F8
:105A5000A3F802B0BDE8104004B07047A0010010E8
:105A600038B5084B1C68054624B1A36913B9204614
:105A700002F014F9A26829462046BDE8384003F038
:105A800079BE00BFA001001070B50E46054618B1E2
:105A900083690BB902F002F9AB69AC6813B9284607
:105AA00002F0FCF82C4B9C4220D16C68636EDB0743
:105AB00005D4A389980502D4A06DFEF758FFA389E9
:105AC00019071DD52369DBB1013EA36816F8011F34
:105AD000013BA36039BB002B38DA22460A21284655
